:100000000C9463010C9480010C9480010C94800189
:100010000C9480010C9480010C9480010C9480015C
:100020000C9480010C9480010C94D4040C942F0542
:100030000C9480010C9480010C9480010C9480013C
:100040000C9480010C9480010C9480010C9480012C
:100050000C9480010C9480010C9480010C9480011C
:100060000C9480010C9480010C9480010C9480010C
:100070000C9480010C9480010C9480010C948001FC
:100080000C9480010C9480010C9480010C948001EC
:100090000C9480010C9480010C9480010C948001DC
:1000A0000C9480010C9480010C94800100010000EC
:1000B000AB01120002000029013B002100003B01BE
:1000C00009002200007D012E0021010054010900D9
:1000D0002201006401190003000025010401030945
:1000E0000411011202030904EB00242403500052FE
:1000F000004F004D004900430052004F0020004BCC
:10010000004500590042004F0041005200440000E9
:10011000001203500052004F004D004900430052AE
:10012000004F0000000403090409023B0002010023
:10013000C03209040000010301010009211101007E
:1001400001222E000705810340000A090401000175
:100150000300000009211101000122190007058296
:100160000308000A050C0901A10185031501269C5D
:100170000219012A9C02751095018100C005010930
:1001800006A101050719E029E7150025017501956C
:10019000088102950175088103953E7508150026B2
:1001A000FF000507190029658100C0120100020047
:1001B000000040C0167C0400010102000101C136AC
:1001C00001C106000000001F1A161D2B2900002087
:1001D00008071B141E00002115090600E00000227C
:1001E000170A19E1040000231C0B05E3000000249A
:1001F000180D1100E20000250C0E102C0000002646
:10020000120F36E7E6000027133337272800002EA9
:100210002D34384B370000352F30464E0000005348
:1002200031E4E5440000452A504F51430052223B3F
:100230003F421E403C4A243A3E211F413D4D254C41
:1002400026232000000100001F1A161D2B29000084
:100250002008071B141E00002115090600E00000FD
:1002600022170A19E1040000231C0B0500390000C5
:1002700024180D1100E20000250C0E102C000000C7
:1002800026120F3600E600002713333762280000DD
:100290002E2D34384B630000352F30464E000000C1
:1002A0005331E4E5440000452A504F514300525D6C
:1002B0003B3F4259403C4A5F3A3E5C5A413D4D60AB
:1002C0004C615E5B000011241FBECFEFDAE0DEBFA1
:1002D000CDBF11E0A0E0B1E0ECE2F0E202C0059099
:1002E0000D92AA35B107D9F722E0AAE5B1E001C025
:1002F0001D92AE3CB207E1F70E94C50F0C940C10A2
:100300000C940000E1E6F1E080910201909103017C
:10031000A091040181939193A19322E0E132F2072D
:10032000C9F71092210210925F0110925E010895A8
:10033000E1E6F1E08091020190910301A0910401B6
:1003400081939193A19322E0E132F207C9F71092D1
:10035000210210925F0110925E0181E08093D7002C
:1003600080EA8093D80082E189BD09B400FEFDCF08
:1003700080E98093D8001092E000109222028CE075
:100380008093E2007894089580912202089510925B
:100390005B0180912202882329F18FB780935B0152
:1003A000F89481E08093E9009091E4009E5C809154
:1003B000E80085FD4FC021E00EC08091E400981751
:1003C00089F08FB780935B01F8942093E9008091C6
:1003D000E80085FD3FC080915B018FBF80912202C4
:1003E0008111EBCF40915E0150915F0180915C01E2
:1003F00090915D014817590709F4089510925B0127
:10040000809122028823C9F38FB780935B01F8940F
:1004100082E08093E9009091E4009E5C8091E80086
:1004200085FD31C022E00EC08091E400981729F3C9
:100430008FB780935B01F8942093E9008091E800E6
:1004400085FD21C080915B018FBF809122028111C7
:10045000EBCF0895809121028093F1001092F1007A
:10046000E1E6F1E080818093F100339682E0E132B1
:10047000F807C1F78AE38093E80080915B018FBFA2
:1004800010926001AFCF83E08093F1004093F100C0
:100490005093F1008AE38093E80080915B018FBF65
:1004A00080915E0190915F0190935D0180935C016A
:1004B0000895442331F1E0E2E40FE83018F18111AE
:1004C0007AC0E2E6F1E090E080E02081251731F08B
:1004D0000196339680349105C1F708952181261342
:1004E000F7CFFC01EE0FFF1FE80FF91FEF59FE4F8A
:1004F0008091020190910301A09104018083918376
:10050000A2830895F0E0E25FFF4E909121020C94E7
:100510000610882309F44BC090649093210208953B
:10052000882309F440C090629093210208958823A3
:10053000B1F19061909321020895882361F1986050
:10054000909321020895882311F1946090932102E1
:1005500008958823C1F09260909321020895882322
:1005600071F09160909321020895882321F09068A2
:100570009093210208959F779093210208959E7F82
:100580009093210208959D7F9093210208959B7F6F
:10059000909321020895977F9093210208959F7E62
:1005A0009093210208959F7D9093210208959F7B4F
:1005B000909321020895E1E6F1E090E080E020814F
:1005C00021110BC0FC01EE0FFF1FE80FF91FEF59BF
:1005D000FE4F4083518362830895019633968034A1
:1005E000910569F7089540915E0150915F018091F6
:1005F0005C0190915D014817590711F480E008955E
:1006000010925B0180912202882329F18FB7809399
:100610005B01F89482E08093E9009091E4009E5C95
:100620008091E80085FD19C022E00EC08091E400B1
:10063000981789F08FB780935B01F8942093E900B5
:100640008091E80085FD09C080915B018FBF80919A
:1006500022028111EBCF81E0089583E08093F100C5
:100660004093F1005093F1008AE38093E800809179
:100670005B018FBF80915E0190915F0190935D015E
:1006800080935C0180E00895E82FF0E0EE0FFF1FFB
:10069000E65FFE4F2081318130935F0120935E0140
:1006A00080915C0190915D012817390789F42FEF43
:1006B00080E792E0215080409040E1F700C00000C8
:1006C00010925F0110925E010E94F30280E0089593
:1006D00010925B0180912202882329F18FB78093C9
:1006E0005B01F89482E08093E9009091E4009E5CC5
:1006F0008091E80085FD19C042E00EC08091E400C1
:10070000981789F08FB780935B01F8944093E900C4
:100710008091E80085FD09C080915B018FBF8091C9
:1007200022028111EBCF81E0089583E08093F100F4
:100730002093F1003093F1008AE38093E8008091E8
:100740005B018FBF80915E0190915F0190935D018D
:1007500080935C01ACCF10925B01909122029923AF
:1007600019F19FB790935B01F8948093E900209171
:10077000E4002E5C9091E80095FF0FC017C09091A7
:10078000E400291789F09FB790935B01F894809358
:10079000E9009091E80095FD09C090915B019FBF31
:1007A000909122029111EBCF81E0089580E00895AD
:1007B00010925B0180912202882329F18FB78093E8
:1007C0005B01F89481E08093E9009091E4009E5CE5
:1007D0008091E80085FD19C021E00EC08091E40001
:1007E000981789F08FB780935B01F8942093E90004
:1007F0008091E80085FD09C080915B018FBF8091E9
:1008000022028111EBCF81E0089580912102809333
:10081000F1001092F100E1E6F1E080818093F100B7
:10082000339682E0E132F807C1F78AE38093E8006B
:1008300080915B018FBF1092600180E008950F935B
:100840001F93CF93DF9310916101D09162010091CA
:100850006301C09121026093210280936101109293
:1008600062011092630110925B0180912202882341
:1008700029F18FB780935B01F89481E08093E900C0
:100880009091E4009E5C8091E80085FD1DC021E010
:100890000EC08091E400981789F08FB780935B01B8
:1008A000F8942093E9008091E80085FD0DC08091C7
:1008B0005B018FBF809122028111EBCF81E0DF913C
:1008C000CF911F910F910895809121028093F100A3
:1008D0001092F100E1E6F1E080818093F10033961F
:1008E00022E0E132F207C1F78AE38093E8008091C9
:1008F0005B018FBF109260018FEF90E722E0815083
:1009000090402040E1F700C0000010926101109279
:1009100021020E94D80310936101D09362010093D9
:100920006301C093210280E0DF91CF911F910F916D
:10093000089510925B0190912202992329F19FB7AB
:1009400090935B01F89492E09093E9002091E40089
:100950002E5C9091E80095FD19C032E00EC0909198
:10096000E400291789F09FB790935B01F8943093C6
:10097000E9009091E80095FD09C090915B019FBF4F
:10098000909122029111EBCF81E008958093F100C4
:100990006093F1007093F1008AE38093E800809106
:1009A0005B018FBF80E008951F921FB61F92112434
:1009B0008F939F93EF93FF938091E1001092E1005A
:1009C00083FF0FC01092E90091E09093EB0010922A
:1009D000EC0092E39093ED0098E09093F000109279
:1009E000220282FF34C080912202882381F180910B
:1009F0000001882361F180915A018F5F80935A0131
:100A0000837029F581E08093E9008091E80085FFFB
:100A10001EC0809160018F5F809360019091000102
:100A2000891315C010926001809121028093F1001A
:100A30001092F100E1E6F1E080818093F1003396BD
:100A400082E0E132F807C1F78AE38093E800FF9182
:100A5000EF919F918F911F901FBE1F9018951F922D
:100A60001FB61F9211242F933F934F935F936F9361
:100A70007F938F939F93AF93BF93CF93EF93FF9306
:100A80001092E9008091E80083FF49C07091F10065
:100A90009091F1002091F1008091F100382F409168
:100AA000F1008091F100582F8091F100C091F10088
:100AB00062EF6093E800963009F445C0953009F480
:100AC0000FC1993009F460C0983009F475C09923BA
:100AD00009F44BC0892F8D7F813009F058C07230E6
:100AE00009F055C021153105D1F44F778FEF840FF0
:100AF0008430A8F48EEF8093E8004093E9009330AF
:100B000071F089E18093EB0081E090E001C0880FF3
:100B10004A95EAF78093EA001092EA0003C081E266
:100B20008093EB00FF91EF91CF91BF91AF919F9197
:100B30008F917F916F915F914F913F912F911F9076
:100B40001FBE1F901895ECEAF0E065917491621752
:100B5000730709F03FC0EEEAF0E065917491461723
:100B60005707C1F52CEA30E058C08091E80080FFBB
:100B7000FCCF723809F4D2C09093F1001092F100CA
:100B80008EEF8093E800CECF772309F408C1452B80
:100B900009F0C5CF713A09F4CBC0713209F0BFCF6B
:100BA0009A3009F499C19B3009F0B9CF2093010123
:100BB0008EEF8093E800B6CF703849F78091E80057
:100BC00080FFFCCF809122028093F1008EEF809312
:100BD000E800A8CFE3EBF0E06591749126173707A2
:100BE00051F4E5EBF0E0659174914617570719F45D
:100BF00023EB30E012C0EAEBF0E065917491261728
:100C0000370709F04BC0ECEBF0E0659174914617A3
:100C1000570709F043C02AEB30E0F9013496A5915B
:100C2000B4912A5F3F4FF90124919C2F8F3F91058A
:100C300019F010F08FEF90E0482F281708F4422F9A
:100C40005EEF8091E800982F9570D9F382FD6ACF0E
:100C5000942F413408F090E4442309F490C0FD013E
:100C60006FEF690F70E09D012F5F3F4F260F371F19
:100C700084918093F1003196E217F307C9F76F5F13
:100C80007F4FA60FB71F842F891B5093E80049138D
:100C900003C0403409F046CF482FD3CFE1ECF0E059
:100CA000659174912617370751F4E3ECF0E06591F4
:100CB00074914617570719F421EC30E0AECFE8ECF9
:100CC000F0E06591749126173707A9F4EAECF0E09B
:100CD000659174914617570771F428EC30E09DCF69
:100CE0008EEF8093E8008091E80080FFFCCF2068C1
:100CF0002093E30017CFEFECF0E065917491261795
:100D0000370709F0B4C0E1EDF0E065917491461742
:100D1000570709F0ACC02FEC30E07FCF4093E900DB
:100D20009091EB0095FB992790F91092E90024CF60
:100D3000913089F0923039F1933009F0F0CE809102
:100D4000E80080FFFCCF809101018093F1008EEFDD
:100D50008093E800E7CE8091E80080FFFCCF80918F
:100D600021028093F1001092F100E1E6F1E0808130
:100D70008093F100339682E0E132F807C1F78EEFFD
:100D80008093E800CFCE8091E80080FFFCCF809177
:100D900000018093F1008EEF8093E800C3CE209392
:100DA00022028EEF8093E80081E08093E900EDEB72
:100DB000F1E0E491E093EB002EEB31E0EE2361F003
:100DC000EEEBF1E0E491E093EC00EFEBF1E0E49185
:100DD000E093ED0020EC31E082E08093E900C9016E
:100DE0000196F90144914093EB00442361F0FC012A
:100DF00084918093EC00C90103962E5F3F4FF90167
:100E000024912093ED0023E02093E9009C012F5FC3
:100E10003F4FFC0144914093EB00442361F0F90102
:100E200024912093EC009C012D5F3F4F0296FC0122
:100E300084918093ED0084E08093E900A9014F5FE5
:100E40005F4FF90184918093EB00882351F0FA0100
:100E500044914093EC002E5F3F4FF9012491209381
:100E6000ED008EE18093EA001092EA005BCEE6EDA1
:100E7000F0E0659174912617370751F4E8EDF0E042
:100E8000659174914617570719F426ED30E0C5CEE9
:100E9000EDEDF0E0659174912617370751F4EFED11
:100EA000F0E0659174914617570719F42DED30E085
:100EB000B4CEE4EEF0E0659174912617370709F09F
:100EC0002ECEE6EEF0E0259134914217530709F05B
:100ED00026CE24EE30E0A1CE3093000110926001C6
:100EE0008EEF8093E8001ECE66E487E00E940C0E31
:100EF00066E486E00E940C0E66E485E00E940C0E1B
:100F000066E484E00E940C0E88E191E00E942D0FBF
:100F100040E062E486E00E94750E40E062E482E018
:100F20000E94750E40E062E483E00E94750E40E08E
:100F300062E481E00E94750E40E064E483E00E9478
:100F4000750E40E064E482E00E94750E40E062E4C9
:100F500080E00E94750E40E064E485E00E94750E1A
:100F600040E066E480E00E94750E40E066E481E0C7
:100F70000E94750E40E065E482E00E94750E40E03C
:100F800064E486E00E94750E40E063E487E00E941E
:100F9000750E40E062E487E00E94750E81E00895DE
:100FA0008FE08093CC020895CF92DF92EF92FF9270
:100FB0000F931F93CF93DF9300D000D0CDB7DEB750
:100FC00083FB992790F9998382FB992790F99A835B
:100FD00081FB992790F99B8381708C83CE010196C8
:100FE0007C0108E211E06E0195E0C90ED11CF70109
:100FF00041917F01F801608181810E94830D0E5F24
:101000001F4FEC14FD0499F7FAEBFA95F1F700C0C5
:101010000F900F900F900F90DF91CF911F910F9134
:10102000FF90EF90DF90CF900895E4ECF1E0E49131
:101030008E1749F0E5E4F2E0E49121E830E08E1704
:1010400021F080E0089530E020E0E42FF0E03196D8
:10105000862F90E0880F991F880F991F880F991F7E
:10106000E80FF91FE20FF31FEC53FE4F8491089530
:101070008091BB028F3039F4E0910501F0910601B7
:101080002081223008F008958091A3029091A4025B
:10109000A091A5028F3009F449C08091A6029091D9
:1010A000A702A091A8028F3009F44FC08091A90235
:1010B0009091AA02A091AB028F3009F44DC08091AB
:1010C000AC029091AD02A091AE028F3009F44BC0FA
:1010D0008091AF029091B002A091B1028F3009F4DB
:1010E00049C08091B2029091B302A091B4028F30B6
:1010F00009F447C08091B5029091B602A091B70261
:101100008F3009F445C08091B8029091B902A09146
:10111000BA028F3009F443C0222339F085E591E00B
:10112000909306018093050108950895973009F082
:10113000B4CFAA2309F4B1CF2111A5CF85E391E063
:1011400090930601809305010895973009F0AECF82
:10115000AA2309F4ABCFF0CF973009F0B0CFAA2380
:1011600009F4ADCFE9CF973009F0B2CFAA2309F443
:10117000AFCFE2CF973009F0B4CFAA2309F4B1CFB3
:10118000DBCF973009F0B6CFAA2309F4B3CFD4CF81
:10119000973009F0B8CFAA2309F4B5CFCDCF973057
:1011A00009F0BACFAA2309F4B7CFC6CFCF92DF9206
:1011B000EF92FF920F931F93CF93DF9304EC11E014
:1011C000D0E0C0E045E4E42E42E0F42E51E2C52E2A
:1011D00052E0D52E08C080E00E9459022196C83006
:1011E000D10509F445C06C2FCE01880F991FFC0171
:1011F000EC0FFD1FED55FD4F71812081E091050140
:10120000F09106013081F80144913417D1F1F701D2
:101210004491341709F44BC040E05091BB02209137
:10122000C6022223C1F28C0F9D1FFC01ED55FD4F1C
:101230008281882381F2E1E6F1E004C03396CE1684
:10124000DF0671F0928181815813F8CF6913F6CFD0
:101250008081841709F4C2CF3396CE16DF0691F74A
:1012600081E00E9459022196C830D10509F0BBCF18
:10127000DF91CF911F910F91FF90EF90DF90CF9072
:10128000089540E050E0E22FF0E0EE0FFF1FEE0F78
:10129000FF1FEE0FFF1F272F30E02F5F3F4FE20FA2
:1012A000F31FE40FF51FEC53FE4F4491B6CF41E816
:1012B00050E0E9CF4091BB02242F30E08091A5029D
:1012C000220F331F220F331F220F331FF901ED5D51
:1012D000FD4F8083842F90E0A0E08093A302909341
:1012E000A402A093A5024091BC02411103C041E0B9
:1012F0004093A5024091A802F901ED5DFD4F4183A5
:1013000091E08093A6029093A702A093A802409137
:10131000BD02411103C041E04093A8024091AB02DD
:10132000F901ED5DFD4F428392E08093A902909315
:10133000AA02A093AB024091BE02411103C041E05A
:101340004093AB024091AE02F901ED5DFD4F438346
:1013500093E08093AC029093AD02A093AE024091D3
:10136000BF02411103C041E04093AE024091B1027F
:10137000F901ED5DFD4F448394E08093AF029093BB
:10138000B002A093B1024091C002411103C041E0FC
:101390004093B1024091B402F901ED5DFD4F4583E8
:1013A00095E08093B2029093B302A093B40240916F
:1013B000C102411103C041E04093B4024091B70221
:1013C000F901ED5DFD4F468396E08093B502909361
:1013D000B602A093B7024091C202411103C041E09E
:1013E0004093B7024091BA022D5D3D4FF90147830A
:1013F00097E08093B8029093B902A093BA028091CB
:10140000C302811103C081E08093BA020895E3E230
:10141000F2E01082118212821382148215821682E7
:1014200017821086118612861386148615861686F4
:101430001786108A118A128A138A148A158A168AC4
:10144000178A108E118E128E138E148E158E168E94
:10145000178E10A211A212A213A214A215A216A2F4
:1014600017A210A611A612A613A614A615A616A6B4
:1014700017A610AA11AA12AA13AA14AA15AA16AA84
:1014800017AA10AE11AE12AE13AE14AE15AE16AE54
:1014900017AE1092630210926402109265021092CD
:1014A000660210926702109268021092690210920E
:1014B0006A0210926B0210926C0210926D021092EE
:1014C0006E0210926F0210927002109271021092CE
:1014D00072021092730210927402109275021092AE
:1014E000760210927702109278021092790210928E
:1014F0007A0210927B0210927C0210927D0210926E
:101500007E0210927F02109280021092810210924D
:10151000820210928302109284021092850210922D
:10152000860210928702109288021092890210920D
:101530008A0210928B0210928C0210928D021092ED
:101540008E0210928F0210929002109291021092CD
:1015500092021092930210929402109295021092AD
:10156000960210929702109298021092990210928D
:101570009A0210929B0210929C0210929D0210926D
:101580009E0210929F021092A0021092A10210924D
:10159000A202E3EAF2E08091070190910801A09194
:1015A000090180839183A28383839483A5838683A7
:1015B0009783A08781879287A38784879587A6874B
:1015C0008787908BA18B828B938BA48B858B968B3B
:1015D000A78B0C94130B60E089E30E941F042FEF8C
:1015E0008EE595E0215080409040E1F700C000007A
:1015F000089580E00E9444032FEF8AE693E0215093
:1016000080409040E1F700C00000089584E00E940F
:1016100044032FEF8AE693E0215080409040E1F7A9
:1016200000C0000008958091070190910801A091E9
:1016300009018093C9029093CA02A093CB02089536
:101640002F923F924F925F926F927F928F929F92D2
:10165000AF92BF92CF92DF92EF92FF920F931F93C0
:10166000CF93DF9300D000D0CDB7DEB71C821B82B2
:10167000B0904901F0904F015090460160904301B5
:101680007090400180903D0190903A01A0904C01F3
:1016900020904D0130903B0140903E01209141014E
:1016A0002983809144018A831EC080915201811751
:1016B00009F486C0511609F48AC0611609F499C06C
:1016C000711609F4A7C0811609F4B5C0911609F482
:1016D000C2C0A11609F4CFC08B819C8101969C8366
:1016E0008B830897D1F1EB81FC81EE0FFF1F8B817B
:1016F0009C81E80FF91FED55FD4FC080D180E2803D
:101700001C2D0D2DEE2041F3BC14F1F1F112CDCFC3
:10171000809150018013C9CF8091C9029091070137
:10172000891709F4AEC0811304C08091CA028017E2
:1017300009F260E089E30E941F049FEF2EE585E037
:10174000915020408040E1F700C000008B819C81D7
:1017500001969C838B83089731F60F900F900F9022
:101760000F90DF91CF911F910F91FF90EF90DF903D
:10177000CF90BF90AF909F908F907F906F905F9031
:101780004F903F902F90089580914A018D11BECFC8
:1017900060E087E20E941F048FE19EE40197F1F769
:1017A00000C0000060E087E20E941F049FEF2AE66D
:1017B00083E0915020408040E1F700C00000A6CFB8
:1017C00080915301801709F4A7CF511276CF8091F1
:1017D0004701801372CF85E00E9444039FEF2AE601
:1017E00083E0915020408040E1F700C0000061128A
:1017F00067CF9A81901364CF86E00E9444032FEF55
:101800008AE693E0215080409040E1F700C000005C
:10181000711259CF2981201356CF82E00E944403D0
:101820008FEF9AE623E0815090402040E1F700C01E
:10183000000081124BCF401249CF83E00E94440345
:101840008FEF9AE623E0815090402040E1F700C0FE
:10185000000091123ECF30123CCF80E00E94440342
:101860008FEF9AE623E0815090402040E1F700C0DE
:101870000000A11231CF20122FCF81E08093C80247
:101880002BCF2091CA029091080129134CCFC0920E
:10189000C902D092CA02E092CB021ECF0E94200B56
:1018A00081E008954434B1F1B0F0453409F442C008
:1018B000463409F06EC021E030E0A90102C0440FB7
:1018C000551F8A95E2F7CA0191B36623F1F0892B7F
:1018D00081BB81E008954234E9F1433409F059C0F5
:1018E00021E030E0A90102C0440F551F8A95E2F7BC
:1018F000CA0198B1662321F0892B88B981E0089547
:101900008095892388B981E008958095892381BBDA
:1019100081E0089521E030E0A90102C0440F551F85
:101920008A95E2F7CA019BB1662321F1892B8BB915
:1019300081E0089521E030E0A90102C0440F551F65
:101940008A95E2F7CA019EB16623F1F0892B8EB920
:1019500081E0089521E030E0A90102C0440F551F45
:101960008A95E2F7CA0195B1662349F0892B85B9BA
:1019700081E00895809589238BB981E00895809551
:10198000892385B981E00895809589238EB981E006
:10199000089580E008954434B1F1B0F0453409F47D
:1019A00042C0463409F06EC021E030E0A90102C017
:1019B000440F551F8A95E2F7CA0190B36623F1F0F0
:1019C000892B80BB81E008954234E9F1433409F06A
:1019D00059C021E030E0A90102C0440F551F8A958B
:1019E000E2F7CA0197B1662321F0892B87B981E01C
:1019F00008958095892387B981E00895809589238A
:101A000080BB81E0089521E030E0A90102C0440FCD
:101A1000551F8A95E2F7CA019AB1662321F1892BF5
:101A20008AB981E0089521E030E0A90102C0440FA5
:101A3000551F8A95E2F7CA019DB16623F1F0892B03
:101A40008DB981E0089521E030E0A90102C0440F82
:101A5000551F8A95E2F7CA0194B1662349F0892B94
:101A600084B981E00895809589238AB981E0089539
:101A70008095892384B981E00895809589238DB963
:101A800081E0089580E008956434E9F070F06534F1
:101A900021F16634B1F59FB121E030E001C0220FA1
:101AA0008A95EAF7892F82230895623401F163341D
:101AB00041F596B121E030E001C0220F8A95EAF7A6
:101AC000892F8223089599B121E030E001C0220FCF
:101AD0008A95EAF7892F822308959CB121E030E0AE
:101AE00001C0220F8A95EAF7892F8223089593B1C6
:101AF00021E030E001C0220F8A95EAF7892F822386
:101B0000089580E00895643409F44EC0C0F065344F
:101B100009F45CC0663409F07EC021E030E0B90110
:101B200002C0660F771F8A95E2F7CB01442301F1CB
:101B300021B3262B21BB90B3892B80BB089562343F
:101B400009F1633409F066C021E030E0B90102C058
:101B5000660F771F8A95E2F7CB0141110FC038B1AC
:101B6000262F2095232328B997B1892B87B908956B
:101B700031B3262F2095232321BBDDCF28B1262B7F
:101B800028B9F2CF21E030E0B90102C0660F771F1B
:101B90008A95E2F7CB01442359F125B1262B25B9CB
:101BA00094B1892B84B9089521E030E0B90102C0D5
:101BB000660F771F8A95E2F7CB014423F9F02BB12A
:101BC000262B2BB99AB1892B8AB9089521E030E0F0
:101BD000B90102C0660F771F8A95E2F7CB01442353
:101BE00099F02EB1262B2EB99DB1892B8DB9089570
:101BF00035B1262F2095232325B9D2CF3BB1262FEF
:101C0000209523232BB9DECF3EB1262F2095232309
:101C10002EB9EACF08950895643479F1B8F06534A7
:101C2000F1F1663409F05FC041B321E030E0B90161
:101C300002C0660F771F8A95E2F7CB01962F909529
:101C4000942391BB90B3892B80BB08956234C9F172
:101C5000633409F049C048B121E030E0B90102C065
:101C6000660F771F8A95E2F7CB01962F9095942304
:101C700098B997B1892B87B908954BB121E030E02D
:101C8000B90102C0660F771F8A95E2F7CB01962F44
:101C9000909594239BB99AB1892B8AB908954EB136
:101CA00021E030E0B90102C0660F771F8A95E2F7A4
:101CB000CB01962F909594239EB99DB1892B8DB918
:101CC000089545B121E030E0B90102C0660F771FE9
:101CD0008A95E2F7CB01962F9095942395B994B10C
:101CE000892B84B9089508950895643409F450C087
:101CF000D0F0653409F460C0663409F07EC021E09C
:101D000030E0B90102C0660F771F8A95E2F7CB0178
:101D1000262F2095442301F191B3892B81BB80B3F9
:101D2000822380BB08956234F9F0633409F064C003
:101D300021E030E0B90102C0660F771F8A95E2F713
:101D4000CB01262F209541110BC088B1822388B981
:101D500087B1822387B9089581B3822381BBDFCF06
:101D600098B1892B88B9F4CF21E030E0B90102C0E5
:101D7000660F771F8A95E2F7CB01262F2095442323
:101D800079F195B1892B85B984B1822384B90895FD
:101D900021E030E0B90102C0660F771F8A95E2F7B3
:101DA000CB01262F20954423F9F09BB1892B8BB9C9
:101DB0008AB182238AB9089521E030E0B90102C0D6
:101DC000660F771F8A95E2F7CB01262F20954423D3
:101DD00079F09EB1892B8EB98DB182238DB908958A
:101DE00085B1822385B9D0CF8BB182238BB9E0CF67
:101DF0008EB182238EB9F0CF0895089590E09C01B2
:101E0000359527952570880F991F8A70282B022EEB
:101E1000000C330BC901880F991F880F991F8C7014
:101E20003595279535952795822B089590E09C014F
:101E3000359527952575880F991F8A7A282B30E0CC
:101E4000C90195958795959587958373220F331FC3
:101E5000220F331F2C7C822B08950F931F93CF9357
:101E6000DF93EC018C01005F1F4F688189810E9424
:101E70000C0E41E0688189810E94750E2296C01780
:101E8000D10799F781E0DF91CF911F910F910895CC
:101E9000E1E6F0E080E8808310820E94740781E030
:101EA0000895EF92FF920F931F93CF93DF931092B9
:101EB000BB028091CC0280E0FF24F394EE24E394F3
:101EC0001092C6021092CD020E94D40708E111E0E0
:101ED000D0E0C0E01DC0DE01A454BD4F1C92E091D3
:101EE000BB02F0E0EE0FFF1FEE0FFF1FEE0FFF1F14
:101EF000ED5DFD4FEC0FFD1F90818C91981302C09A
:101F0000E092C60221960E5F1F4FC830D105A9F09E
:101F1000F801608181810E94440D8093CD028091FF
:101F2000CD028823C1F2FE01E454FD4FF0822196D8
:101F30000E5F1F4FC830D10559F78091C50281113E
:101F400005C08091C6028111E092C5020E945A0923
:101F50000E9438080E944E0C882331F00E94D60857
:101F6000FAEBFA95F1F700C08091BB028F5F809386
:101F7000BB029091CC02981708F0A2CFDF91CF91CD
:101F80001F910F91FF90EF9008950E94480F8823B2
:101F9000E1F30E9498010E94C4018823E1F30E94AA
:101FA000D007C1E00CC01092C5020E94510F809171
:101FB000C802811120C088E191E00E942D0F0E948B
:101FC000070A9091C4028091C502981731F0809160
:101FD000C5028093C402C093C7028091C7028823C0
:101FE00011F30E94C7011092C5020E94510F809107
:101FF000C802882301F388E198E00FB6F894A89509
:10200000809360000FBE90936000FFCFEE0FFF1F24
:102010000590F491E02D0994F894FFCFAF02A90246
:0C202000A3029D02970290028902B50203
:10202C007D0100FFFF5501FFFF00CD00B700B6009A
:10203C00B500E200E900EA00420542044506440707
:10204C00430644044400440146044605460646073C
:10205C000000FFFF0001000F07000F06000A070039
:10206C000B07000C00000C07000607000407000318
:0A207C0006010B05010000FFFF0044
:00000001FF
