:100000000C9463010C9480010C9480010C94800189
:100010000C9480010C9480010C9480010C9480015C
:100020000C9480010C9480010C94D5040C94300540
:100030000C9480010C9480010C9480010C9480013C
:100040000C9480010C9480010C9480010C9480012C
:100050000C9480010C9480010C9480010C9480011C
:100060000C9480010C9480010C9480010C9480010C
:100070000C9480010C9480010C9480010C948001FC
:100080000C9480010C9480010C9480010C948001EC
:100090000C9480010C9480010C9480010C948001DC
:1000A0000C9480010C9480010C94800100010000EC
:1000B000AB01120002000029013B002100003B01BE
:1000C00009002200007D012E0021010054010900D9
:1000D0002201006401190003000025010401030945
:1000E0000411011202030904EB00242403500052FE
:1000F000004F004D004900430052004F0020004BCC
:10010000004500590042004F0041005200440000E9
:10011000001203500052004F004D004900430052AE
:10012000004F0000000403090409023B0002010023
:10013000C03209040000010301010009211101007E
:1001400001222E000705810340000A090401000175
:100150000300000009211101000122190007058296
:100160000308000A050C0901A10185031501269C5D
:100170000219012A9C02751095018100C005010930
:1001800006A101050719E029E7150025017501956C
:10019000088102950175088103953E7508150026B2
:1001A000FF000507190029658100C0120100020047
:1001B000000040C0167C0400010102000101C136AC
:1001C00001C106000000001F1A161D2B2900002087
:1001D00008071B141E00002115090600E00000227C
:1001E000170A19E1040000231C0B05E3000000249A
:1001F000180D1100E20000250C0E102C0000002646
:10020000120F36E7E6000027133337272800002EA9
:100210002D34384B370000352F30464E0000005348
:1002200031E4E5440000452A504F51430052223B3F
:100230003F421E403C4A243A3E211F413D4D254C41
:1002400026232000000100001F1A161D2B29000084
:100250002008071B141E00002115090600E00000FD
:1002600022170A19E1040000231C0B0500390000C5
:1002700024180D1100E20000250C0E102C000000C7
:1002800026120F3600E600002713333762280000DD
:100290002E2D34384B630000352F30464E000000C1
:1002A0005331E4E5440000452A504F514300525D6C
:1002B0003B3F4259403C4A5F3A3E5C5A413D4D60AB
:1002C0004C615E5B000011241FBECFEFDAE0DEBFA1
:1002D000CDBF11E0A0E0B1E0E8EFFFE102C0059082
:1002E0000D92A835B107D9F722E0A8E5B1E001C029
:1002F0001D92AC3CB207E1F70E94C30F0C94F20FC1
:100300000C940000EFE5F1E080910201909103016F
:10031000A091040181939193A19322E0EF31F20720
:10032000C9F710921F0210925D0110925C010895AE
:10033000EFE5F1E08091020190910301A0910401A9
:1003400081939193A19322E0EF31F207C9F71092C4
:100350001F0210925D0110925C0181E08093D70032
:1003600080EA8093D80082E189BD09B400FEFDCF08
:1003700080E98093D8001092E000109220028CE077
:100380008093E2007894089580912002089510925D
:10039000590180912002882329F18FB78093590158
:1003A000F89481E08093E9009091E4009E5C809154
:1003B000E80085FD4FC021E00EC08091E400981751
:1003C00089F08FB780935901F8942093E9008091C8
:1003D000E80085FD3FC0809159018FBF80912002C8
:1003E0008111EBCF40915C0150915D0180915A01E8
:1003F00090915B014817590709F40895109259012B
:10040000809120028823C9F38FB780935901F89413
:1004100082E08093E9009091E4009E5C8091E80086
:1004200085FD32C022E00EC08091E400981729F3C8
:100430008FB780935901F8942093E9008091E800E8
:1004400085FD22C0809159018FBF809120028111CA
:10045000EBCF089580911F028093F1001092F1007C
:10046000EFE5F1E02FE132E080818093F1003396F7
:100470002E173F07C9F78AE38093E800809159015E
:100480008FBF10925E01AECF83E08093F100409366
:10049000F1005093F1008AE38093E80080915901C4
:1004A0008FBF80915C0190915D0190935B0180937F
:1004B0005A010895442331F1E0E2E40FE83018F1E5
:1004C00081117AC0E0E6F1E090E080E0208125171C
:1004D00031F00196339680349105C1F7089521815A
:1004E0002613F7CFFC01EE0FFF1FE80FF91FE15AAB
:1004F000FE4F8091020190910301A091040180833D
:100500009183A2830895F0E0EC50F04F90911F0288
:100510000C94EC0F882309F44BC0906490931F0255
:100520000895882309F440C0906290931F020895B3
:100530008823B1F1906190931F020895882361F19F
:10054000986090931F020895882311F1946090930E
:100550001F0208958823C1F0926090931F020895AE
:10056000882371F0916090931F020895882321F0F1
:10057000906890931F0208959F7790931F020895AB
:100580009E7F90931F0208959D7F90931F02089570
:100590009B7F90931F020895977F90931F02089569
:1005A0009F7E90931F0208959F7D90931F02089550
:1005B0009F7B90931F020895EFE5F1E090E080E0CB
:1005C000208121110BC0FC01EE0FFF1FE80FF91F66
:1005D000E15AFE4F4083518362830895019633961A
:1005E0008034910569F7089540915C0150915D0157
:1005F00080915A0190915B014817590711F480E0EE
:1006000008951092590180912002882329F18FB713
:1006100080935901F89482E08093E9009091E4007E
:100620009E5C8091E80085FD19C022E00EC080919B
:10063000E400981789F08FB780935901F8942093BC
:10064000E9008091E80085FD09C0809159018FBFC4
:10065000809120028111EBCF81E0089583E08093A7
:10066000F1004093F1005093F1008AE38093E80099
:10067000809159018FBF80915C0190915D019093B1
:100680005B0180935A0180E00895E82FF0E0EE0FBF
:10069000FF1FE65FFE4F2081318130935D01209383
:1006A0005C0180915A0190915B012817390789F408
:1006B0002FEF80E792E0215080409040E1F700C0AA
:1006C000000010925D0110925C010E94F40280E033
:1006D00008951092590180912002882329F18FB743
:1006E00080935901F89482E08093E9009091E400AE
:1006F0009E5C8091E80085FD19C042E00EC08091AB
:10070000E400981789F08FB780935901F8944093CB
:10071000E9008091E80085FD09C0809159018FBFF3
:10072000809120028111EBCF81E0089583E08093D6
:10073000F1002093F1003093F1008AE38093E80008
:10074000809159018FBF80915C0190915D019093E0
:100750005B0180935A01ACCF109259019091200215
:10076000992319F19FB790935901F8948093E90068
:100770002091E4002E5C9091E80095FF0FC017C017
:100780009091E400291789F09FB790935901F8944C
:100790008093E9009091E80095FD09C0909159017E
:1007A0009FBF909120029111EBCF81E0089580E0EE
:1007B00008951092590180912002882329F18FB762
:1007C00080935901F89481E08093E9009091E400CE
:1007D0009E5C8091E80085FD19C021E00EC08091EB
:1007E000E400981789F08FB780935901F89420930B
:1007F000E9008091E80085FD09C0809159018FBF13
:10080000809120028111EBCF81E0089580911F0239
:100810008093F1001092F100EFE5F1E08081809388
:10082000F100339682E0EF31F807C1F78AE3809355
:10083000E800809159018FBF10925E0180E0089519
:100840000F931F93CF93DF93D0915F0110916001BD
:1008500000916101C0911F0260931F0280935F01AC
:100860001092600110926101109259018091200252
:10087000882329F18FB780935901F89481E0809300
:10088000E9009091E4009E5C8091E80085FD1DC028
:1008900021E00EC08091E400981789F08FB7809313
:1008A0005901F8942093E9008091E80085FD0DC07E
:1008B000809159018FBF809120028111EBCF81E09F
:1008C000DF91CF911F910F91089580911F02809326
:1008D000F1001092F100EFE5F1E080818093F100EA
:1008E000339622E0EF31F207C1F78AE38093E80004
:1008F000809159018FBF10925E018FEF90E722E047
:10090000815090402040E1F700C0000010925F014C
:1009100010921F020E94D903D0935F0110936001CF
:1009200000936101C0931F0280E0DF91CF911F917E
:100930000F9108951092590190912002992329F165
:100940009FB790935901F89492E09093E900209119
:10095000E4002E5C9091E80095FD19C032E00EC0D5
:100960009091E400291789F09FB790935901F8946A
:100970003093E9009091E80095FD09C090915901EC
:100980009FBF909120029111EBCF81E00895809359
:10099000F1006093F1007093F1008AE38093E80026
:1009A000809159018FBF80E008951F921FB61F925A
:1009B00011248F939F93EF93FF938091E100109206
:1009C000E10083FF0FC01092E90091E09093EB00EB
:1009D0001092EC0092E39093ED0098E09093F00079
:1009E0001092200282FF34C080912002882381F17E
:1009F00080910001882361F1809158018F5F80937D
:100A00005801837029F581E08093E9008091E80026
:100A100085FF1EC080915E018F5F80935E01909183
:100A20000001891315C010925E0180911F0280930E
:100A3000F1001092F100EFE5F1E080818093F10088
:100A4000339682E0EF31F807C1F78AE38093E8003C
:100A5000FF91EF919F918F911F901FBE1F9018954E
:100A60001F921FB61F9211242F933F934F935F93B2
:100A70006F937F938F939F93AF93BF93EF93FF9366
:100A80001092E9008091E80083FF47C07091F10067
:100A90002091F1008091F1009091F1004091F100DE
:100AA0003091F100532F3091F100A091F10062EFED
:100AB0006093E800263009F443C0253009F40BC1E7
:100AC000293009F45EC0283009F473C0222309F4E8
:100AD00049C0322F3D7F313009F056C0723009F0E5
:100AE00053C0892BD1F44F778FEF840F8430A8F453
:100AF0008EEF8093E8004093E900233071F089E1A4
:100B00008093EB0081E090E001C0880F4A95EAF7FE
:100B10008093EA001092EA0003C081E28093EB0028
:100B2000FF91EF91BF91AF919F918F917F916F91C5
:100B30005F914F913F912F911F901FBE1F9018956D
:100B4000ECEAF0E0659174916817790709F03FC00D
:100B5000EEEAF0E06591749164177507C1F58CEACF
:100B600090E058C08091E80080FFFCCF723809F413
:100B7000D0C02093F1001092F1008EEF8093E80036
:100B8000CFCF772309F407C1452B09F0C6CF713ABF
:100B900009F4C9C0713209F0C0CF2A3009F498C1F4
:100BA0002B3009F0BACF809301018EEF8093E800DB
:100BB000B7CF703849F78091E80080FFFCCF809173
:100BC00020028093F1008EEF8093E800A9CFE3EB41
:100BD000F0E0659174918617970751F4E5EBF0E02A
:100BE000659174914617570719F483EB90E012C092
:100BF000EAEBF0E0659174918617970709F049C018
:100C0000ECEBF0E0659174914617570709F041C08D
:100C10008AEB90E0FC01349665917491FC01369664
:100C200044919A2F832F8F3F910519F010F08FEF89
:100C300090E0841708F4482F5EEF8091E800982F29
:100C40009570D9F382FD6CCF942F413408F090E475
:100C5000442309F490C0FB01AFEFA90FB0E09B0162
:100C60002F5F3F4F2A0F3B1F84918093F1003196F5
:100C7000E217F307C9F711966A0F7B1F842F891BB0
:100C80005093E800491303C0403408F449CF482F7B
:100C9000D4CFE1ECF0E0659174918617970751F499
:100CA000E3ECF0E0659174914617570719F481EC75
:100CB00090E0B0CFE8ECF0E065917491861797076B
:100CC000A9F4EAECF0E0659174914617570771F4C6
:100CD00088EC90E09FCF2EEF2093E8002091E80071
:100CE00020FFFCCF80688093E3001ACFEFECF0E0A8
:100CF000659174918617970709F0B5C0E1EDF0E0B2
:100D0000659174914617570709F0ADC08FEC90E0DC
:100D100081CF4093E9002091EB0025FB222720F9A9
:100D20001092E90026CF213089F0223041F12330A2
:100D300009F0F3CE8091E80080FFFCCF80910101A3
:100D40008093F1008EEF8093E800EACE8091E80076
:100D500080FFFCCF80911F028093F1001092F10080
:100D6000EFE5F1E02FE132E080818093F1003396EE
:100D70002E173F07C9F78EEF8093E800D1CE809100
:100D8000E80080FFFCCF809100018093F1008EEF9E
:100D90008093E800C5CE809320028EEF8093E80018
:100DA00081E08093E900EDEBF1E0E491E093EB006A
:100DB0002EEB31E0EE2361F0EEEBF1E0E491E09315
:100DC000EC00EFEBF1E0E491E093ED0020EC31E09A
:100DD00082E08093E900C9010196F90144914093B2
:100DE000EB00442361F0FC0184918093EC00C90185
:100DF00003962E5F3F4FF90124912093ED0023E0ED
:100E00002093E9009C012F5F3F4FFC0144914093E8
:100E1000EB00442361F0F90124912093EC009C0144
:100E20002D5F3F4F0296FC0184918093ED0084E09A
:100E30008093E900A9014F5F5F4FF901849180938E
:100E4000EB00882351F0FA0144914093EC002E5FAF
:100E50003F4FF90124912093ED008EE18093EA0049
:100E60001092EA005DCEE6EDF0E065917491861790
:100E7000970751F4E8EDF0E0659174914617570734
:100E800019F486ED90E0C6CEEDEDF0E06591749139
:100E90008617970751F4EFEDF0E0659174914617CE
:100EA000570719F48DED90E0B5CEE4EEF0E06591D2
:100EB00074918617970709F030CEE6EEF0E0859141
:100EC00094914817590709F028CE84EE90E0A2CEFD
:100ED0009093000110925E018EEF8093E80020CE87
:100EE00066E487E00E940A0E66E486E00E940A0E2D
:100EF00066E485E00E940A0E66E484E00E940A0E21
:100F000088E191E00E942B0F40E062E486E00E94BD
:100F1000730E40E062E482E00E94730E40E062E4FF
:100F200083E00E94730E40E062E481E00E94730E51
:100F300040E064E483E00E94730E40E064E482E0F9
:100F40000E94730E40E062E480E00E94730E40E075
:100F500064E485E00E94730E40E066E480E00E9455
:100F6000730E40E066E481E00E94730E40E065E4A9
:100F700082E00E94730E40E064E486E00E94730EFB
:100F800040E063E487E00E94730E40E062E487E0A3
:100F90000E94730E81E008958FE08093CA02089545
:100FA000CF92DF92EF92FF920F931F93CF93DF9335
:100FB00000D000D0CDB7DEB783FB992790F9998395
:100FC00082FB992790F99A8381FB992790F99B835B
:100FD00081708C83CE0101967C0108E211E06E01E4
:100FE00095E0C90ED11CF70141917F01F8016081A4
:100FF00081810E94810D0E5F1F4FEC14FD0499F753
:10100000FAEBFA95F1F700C00F900F900F900F9048
:10101000DF91CF911F910F91FF90EF90DF90CF90D4
:101020000895E4ECF1E0E4918E1749F0E5E4F2E094
:10103000E49121E830E08E1721F080E0089530E05F
:1010400020E0E42FF0E03196862F90E0880F991F82
:10105000880F991F880F991FE80FF91FE20FF31FE0
:10106000EC53FE4F849108958091B9028F3039F48A
:10107000E0910501F09106012081223008F00895E9
:101080008091A1029091A202A091A3028F3009F455
:1010900049C08091A4029091A502A091A6028F3030
:1010A00009F44FC08091A7029091A802A091A902D3
:1010B0008F3009F44DC08091AA029091AB02A091AB
:1010C000AC028F3009F44BC08091AD029091AE021A
:1010D000A091AF028F3009F449C08091B002909185
:1010E000B102A091B2028F3009F447C08091B302DF
:1010F0009091B402A091B5028F3009F445C080915F
:10110000B6029091B702A091B8028F3009F443C0A3
:10111000222339F082E591E0909306018093050146
:1011200008950895973009F0B4CFAA2309F4B1CFF8
:101130002111A5CF85E391E09093060180930501ED
:101140000895973009F0AECFAA2309F4ABCFF0CFC2
:10115000973009F0B0CFAA2309F4ADCFE9CF97308B
:1011600009F0B2CFAA2309F4AFCFE2CF973009F04C
:10117000B4CFAA2309F4B1CFDBCF973009F0B6CFB3
:10118000AA2309F4B3CFD4CF973009F0B8CFAA235C
:1011900009F4B5CFCDCF973009F0BACFAA2309F41F
:1011A000B7CFC6CFCF92DF92EF92FF920F931F93EC
:1011B000CF93DF9304EC11E0D0E0C0E045E4E42EEF
:1011C00042E0F42E5FE1C52E52E0D52E08C080E04B
:1011D0000E945A022196C830D10509F445C06C2FEF
:1011E000CE01880F991FFC01EC0FFD1FEF55FD4F3D
:1011F00071812081E0910501F09106013081F801B3
:1012000044913417D1F1F7014491341709F44BC0DC
:1012100040E05091B9022091C4022223C1F28C0F08
:101220009D1FFC01EF55FD4F8281882381F2EFE580
:10123000F1E004C03396CE16DF0671F081815813B9
:10124000F9CF82816813F6CF8081841709F4C2CF69
:101250003396CE16DF0691F781E00E945A0221965E
:10126000C830D10509F0BBCFDF91CF911F910F910D
:10127000FF90EF90DF90CF90089540E050E0E22F94
:10128000F0E0EE0FFF1FEE0FFF1FEE0FFF1F272FE7
:1012900030E02F5F3F4FE20FF31FE40FF51FEC53D9
:1012A000FE4F4491B6CF41E850E0E9CF4091B902FA
:1012B000242F30E08091A302220F331F220F331F0F
:1012C000220F331FF901EF5DFD4F8083842F90E0E3
:1012D000A0E08093A1029093A202A093A302409168
:1012E000BA02411103C041E04093A3024091A6021B
:1012F000F901EF5DFD4F418391E08093A40290934B
:10130000A502A093A6024091BB02411103C041E097
:101310004093A6024091A902F901EF5DFD4F42837F
:1013200092E08093A7029093A802A093A902409113
:10133000BC02411103C041E04093A9024091AC02BC
:10134000F901EF5DFD4F438393E08093AA029093F0
:10135000AB02A093AC024091BD02411103C041E039
:101360004093AC024091AF02F901EF5DFD4F448321
:1013700094E08093AD029093AE02A093AF024091AF
:10138000BE02411103C041E04093AF024091B2025E
:10139000F901EF5DFD4F458395E08093B002909396
:1013A000B102A093B2024091BF02411103C041E0DB
:1013B0004093B2024091B502F901EF5DFD4F4683C3
:1013C00096E08093B3029093B402A093B50240914B
:1013D000C002411103C041E04093B5024091B80200
:1013E0002F5D3D4FF901478397E08093B6029093BC
:1013F000B702A093B8028091C102811103C081E0BD
:101400008093B8020895E1E2F2E010821182128224
:101410001382148215821682178210861186128614
:1014200013861486158616861786108A118A128AE4
:10143000138A148A158A168A178A108E118E128EB4
:10144000138E148E158E168E178E10A211A212A254
:1014500013A214A215A216A217A210A611A612A6D4
:1014600013A614A615A616A617A610AA11AA12AAA4
:1014700013AA14AA15AA16AA17AA10AE11AE12AE74
:1014800013AE14AE15AE16AE17AE109261021092E6
:10149000620210926302109264021092650210922E
:1014A000660210926702109268021092690210920E
:1014B0006A0210926B0210926C0210926D021092EE
:1014C0006E0210926F0210927002109271021092CE
:1014D00072021092730210927402109275021092AE
:1014E000760210927702109278021092790210928E
:1014F0007A0210927B0210927C0210927D0210926E
:101500007E0210927F02109280021092810210924D
:10151000820210928302109284021092850210922D
:10152000860210928702109288021092890210920D
:101530008A0210928B0210928C0210928D021092ED
:101540008E0210928F0210929002109291021092CD
:1015500092021092930210929402109295021092AD
:10156000960210929702109298021092990210928D
:101570009A0210929B0210929C0210929D0210926D
:101580009E0210929F021092A002E1EAF2E0809186
:10159000070190910801A091090180839183A283A2
:1015A00083839483A58386839783A087818792878B
:1015B000A38784879587A6878787908BA18B828B4B
:1015C000938BA48B858B968BA78B0C940F0B60E071
:1015D00089E30E9420042FEF8EE595E021508040A2
:1015E0009040E1F700C00000089580E00E944503AC
:1015F0002FEF8AE693E0215080409040E1F700C051
:101600000000089584E00E9445032FEF8AE693E0EE
:10161000215080409040E1F700C000000895809183
:10162000070190910801A09109018093C60290934F
:10163000C702A093C80208952F923F924F925F92E3
:101640006F927F928F929F92AF92BF92CF92DF92D2
:10165000EF92FF920F931F93CF93DF9300D000D0B0
:10166000CDB7DEB71C821B82F0904901A0904601E5
:10167000B0904C01509043016090400170903D014A
:1016800080903A0120903B0130903E012091410131
:101690002983809144018A8390904F0140905001AA
:1016A000EB81FC81EE0FFF1F8B819C81E80FF91FFE
:1016B000EF55FD4FC080D180E280EE2069F11C2DF6
:1016C0000D2D8091C902FC1409F45FC0811124C062
:1016D000A11609F48AC0B11609F470C091123BC07A
:1016E000401239C08091C60290910701891709F410
:1016F0006FC0811304C08091C702801761F160E060
:1017000089E30E9420049FEF2EE585E09150204060
:101710008040E1F700C000008B819C8101969C8392
:101720008B83089709F0BCCF0F900F900F900F900C
:10173000DF91CF911F910F91FF90EF90DF90CF90AD
:10174000BF90AF909F908F907F906F905F904F90E1
:101750003F902F900895511609F463C0611609F463
:1017600071C0711609F47FC08112D6CF2012D4CF78
:1017700083E00E9445038FEF9AE623E0815090407A
:101780002040E1F700C00000C7CF90914A019D11B1
:101790009DCFE0910501F09106019081911196CFC6
:1017A00091E089278093C9029FEF24E38CE0915058
:1017B00020408040E1F700C00000AECF80914D0195
:1017C00080138CCF8091C60290910701891391CF2D
:1017D0002091C7029091080129138BCFC092C602B5
:1017E000D092C702E092C80297CF80914701801340
:1017F00072CF60E087E20E9420048FE19EE40197AF
:10180000F1F700C0000060E087E20E9420049FEF33
:101810002AE683E0915020408040E1F700C00000BC
:101820005ACF9A8190139ACF85E00E9445032FEFFB
:101830008AE693E0215080409040E1F700C000002C
:1018400061128FCF298120138CCF86E00E9445033F
:101850008FEF9AE623E0815090402040E1F700C0EE
:101860000000711281CF30127FCF82E00E944503C9
:101870008FEF9AE623E0815090402040E1F700C0CE
:10188000000072CF0E941C0B8091C902811102C01E
:1018900081E008950E9482010E94C70180E00895BE
:1018A0004434B1F1B0F0453409F442C0463409F093
:1018B0006EC021E030E0A90102C0440F551F8A9597
:1018C000E2F7CA0191B36623F1F0892B81BB81E075
:1018D00008954234E9F1433409F059C021E030E081
:1018E000A90102C0440F551F8A95E2F7CA0198B1B9
:1018F000662321F0892B88B981E00895809589239A
:1019000088B981E008958095892381BB81E008959D
:1019100021E030E0A90102C0440F551F8A95E2F78B
:10192000CA019BB1662321F1892B8BB981E008950F
:1019300021E030E0A90102C0440F551F8A95E2F76B
:10194000CA019EB16623F1F0892B8EB981E008951A
:1019500021E030E0A90102C0440F551F8A95E2F74B
:10196000CA0195B1662349F0892B85B981E00895B4
:10197000809589238BB981E008958095892385B965
:1019800081E00895809589238EB981E0089580E0F3
:1019900008954434B1F1B0F0453409F442C04634FE
:1019A00009F06EC021E030E0A90102C0440F551FCC
:1019B0008A95E2F7CA0190B36623F1F0892B80BBC8
:1019C00081E008954234E9F1433409F059C021E03F
:1019D00030E0A90102C0440F551F8A95E2F7CA0101
:1019E00097B1662321F0892B87B981E0089580950E
:1019F000892387B981E008958095892380BB81E0A0
:101A0000089521E030E0A90102C0440F551F8A95D6
:101A1000E2F7CA019AB1662321F1892B8AB981E0E4
:101A2000089521E030E0A90102C0440F551F8A95B6
:101A3000E2F7CA019DB16623F1F0892B8DB981E0EF
:101A4000089521E030E0A90102C0440F551F8A9596
:101A5000E2F7CA0194B1662349F0892B84B981E089
:101A60000895809589238AB981E008958095892316
:101A700084B981E00895809589238DB981E0089526
:101A800080E008956434E9F070F0653421F1663443
:101A9000B1F59FB121E030E001C0220F8A95EAF74D
:101AA000892F82230895623401F1633441F596B1A0
:101AB00021E030E001C0220F8A95EAF7892F8223C6
:101AC000089599B121E030E001C0220F8A95EAF72C
:101AD000892F822308959CB121E030E001C0220FBC
:101AE0008A95EAF7892F8223089593B121E030E0A7
:101AF00001C0220F8A95EAF7892F8223089580E09A
:101B00000895643409F44EC0C0F0653409F45CC033
:101B1000663409F07EC021E030E0B90102C0660FF2
:101B2000771F8A95E2F7CB01442301F121B3262BDD
:101B300021BB90B3892B80BB0895623409F16334D3
:101B400009F066C021E030E0B90102C0660F771FDE
:101B50008A95E2F7CB0141110FC038B1262F2095AD
:101B6000232328B997B1892B87B9089531B3262F3C
:101B70002095232321BBDDCF28B1262B28B9F2CF16
:101B800021E030E0B90102C0660F771F8A95E2F7C5
:101B9000CB01442359F125B1262B25B994B1892BCA
:101BA00084B9089521E030E0B90102C0660F771FC3
:101BB0008A95E2F7CB014423F9F02BB1262B2BB900
:101BC0009AB1892B8AB9089521E030E0B90102C0A9
:101BD000660F771F8A95E2F7CB01442399F02EB167
:101BE000262B2EB99DB1892B8DB9089535B1262F9D
:101BF0002095232325B9D2CF3BB1262F209523232F
:101C00002BB9DECF3EB1262F209523232EB9EACF64
:101C100008950895643479F1B8F06534F1F16634CB
:101C200009F05FC041B321E030E0B90102C0660FA6
:101C3000771F8A95E2F7CB01962F9095942391BB5D
:101C400090B3892B80BB08956234C9F1633409F0E5
:101C500049C048B121E030E0B90102C0660F771FEA
:101C60008A95E2F7CB01962F9095942398B997B176
:101C7000892B87B908954BB121E030E0B90102C04A
:101C8000660F771F8A95E2F7CB01962F90959423E4
:101C90009BB99AB1892B8AB908954EB121E030E001
:101CA000B90102C0660F771F8A95E2F7CB01962F24
:101CB000909594239EB99DB1892B8DB9089545B116
:101CC00021E030E0B90102C0660F771F8A95E2F784
:101CD000CB01962F9095942395B994B1892B84B913
:101CE000089508950895643409F450C0D0F065341F
:101CF00009F460C0663409F07EC021E030E0B9012B
:101D000002C0660F771F8A95E2F7CB01262F209538
:101D1000442301F191B3892B81BB80B3822380BB23
:101D200008956234F9F0633409F064C021E030E0D2
:101D3000B90102C0660F771F8A95E2F7CB01262F03
:101D4000209541110BC088B1822388B987B18223C5
:101D500087B9089581B3822381BBDFCF98B1892BE6
:101D600088B9F4CF21E030E0B90102C0660F771FD7
:101D70008A95E2F7CB01262F2095442379F195B17E
:101D8000892B85B984B1822384B9089521E030E09C
:101D9000B90102C0660F771F8A95E2F7CB01262FA3
:101DA00020954423F9F09BB1892B8BB98AB182230A
:101DB0008AB9089521E030E0B90102C0660F771FAB
:101DC0008A95E2F7CB01262F2095442379F09EB126
:101DD000892B8EB98DB182238DB9089585B1822367
:101DE00085B9D0CF8BB182238BB9E0CF8EB182235E
:101DF0008EB9F0CF0895089590E09C013595279510
:101E00002570880F991F8A70282B022E000C330B27
:101E1000C901880F991F880F991F8C7035952795D8
:101E200035952795822B089590E09C01359527954F
:101E30002575880F991F8A7A282B30E0C90195955E
:101E40008795959587958373220F331F220F331F34
:101E50002C7C822B08950F931F93CF93DF93EC017B
:101E60008C01005F1F4F688189810E940A0E41E04A
:101E7000688189810E94730E2296C017D10799F755
:101E800081E0DF91CF911F910F910895E1E6F0E09D
:101E900080E8808310820E94700781E00895EF92AD
:101EA000FF920F931F93CF93DF931092B90280910B
:101EB000CA0280E0FF24F394EE24E3941092C4025B
:101EC0001092CB020E94D00708E111E0D0E0C0E000
:101ED0001DC0DE01A654BD4F1C92E091B902F0E096
:101EE000EE0FFF1FEE0FFF1FEE0FFF1FEF5DFD4F09
:101EF000EC0FFD1F90818C91981302C0E092C402F8
:101F000021960E5F1F4FC830D105A9F0F8016081FE
:101F100081810E94420D8093CB028091CB02882365
:101F2000C1F2FE01E654FD4FF08221960E5F1F4F75
:101F3000C830D10559F78091C302811105C0809145
:101F4000C4028111E092C3020E9456090E94340823
:101F50000E94420C882331F00E94D208FAEBFA95D5
:101F6000F1F700C08091B9028F5F8093B902909120
:101F7000CA02981708F0A2CFDF91CF911F910F915D
:101F8000FF90EF9008950E94460F8823E1F30E948E
:101F900098010E94C4018823E1F30E94CC07C1E0AC
:101FA0000E94030A9091C2028091C302981731F0F7
:101FB0008091C3028093C202C093C5028091C50282
:101FC00081110E94C7011092C3020E944F0F88E145
:101FD00091E00E942B0FE4CFEE0FFF1F0590F491CC
:101FE000E02D0994F894FFCFB002AA02A4029E0249
:081FF000980291028A02B60278
:101FF8007D0100FFFF5201FFFF00CD00B700B600D2
:10200800B500E200E900EA0042054204450644073B
:102018004306440444004401460446054606460770
:102028000000FFFF0001000F07000A07000B070070
:102038000C00000C07000607000407000306010B4C
:0820480005010000FFFF00008C
:00000001FF
