:100000006AC1000083C1000081C100007FC10000FF
:100010007DC100007BC1000079C1000077C10000F4
:1000200075C1000073C10000AAC5000005C600002C
:100030006DC100006BC1000069C1000067C1000014
:1000400065C1000063C1000061C100005FC1000024
:100050005DC100005BC1000059C1000057C1000034
:1000600055C1000053C1000051C100004FC1000044
:100070004DC100004BC1000049C1000047C1000054
:1000800045C1000043C1000041C100003FC1000064
:100090003DC100003BC1000039C1000037C1000074
:1000A00035C1000033C1000031C100007A04800472
:1000B00086048C04920498049E04A4040000001F8B
:1000C0001A161D2B2900002008071B141E000021F2
:1000D00015090600E0000022170A19E104000023B8
:1000E0001C0B05E300000024180D1100E2000025A0
:1000F0000C0E102C00000026120F36E7E600002739
:10010000133337272800002E2D34384B37000035A5
:100110002F30464E0000005331E4E5440000452AEC
:10012000504F51430052223B3F421E403C4A243A2A
:100130003E211F413D4D254C26232000F0010000AB
:100140001F1A161D2B2900002008071B141E000073
:100150002115090600E0000022170A19E104000039
:10016000231C0B050039000024180D1100E20000CB
:10017000250C0E102C00000026120F3600E60000A1
:1001800027133337622800002E2D34384B630000CC
:10019000352F30464E0000005331E4E54400004561
:1001A0002A504F514300525D3B3F4259403C4A5F09
:1001B0003A3E5C5A413D4D604C615E5B00F000018F
:1001C0000000BD0212000200003B023B00210000C3
:1001D0004D0209002200008F022E0021010066025C
:1001E0000900220100760219000300003702040111
:1001F00003090423021202030904FD01242403500D
:100200000052004F004D004900430052004F0020B3
:10021000004B004500590042004F0041005200448D
:100220000000001203500052004F004D00490043EF
:100230000052004F0000000403090409023B0002C1
:100240000100C0320904000001030101000921116D
:10025000010001222E000705810340000A09040164
:10026000000103000000092111010001221900070B
:1002700005820308000A050C0901A1018503150187
:10028000269C0219012A9C02751095018100C00567
:10029000010906A101050719E029E71500250175E7
:1002A0000195088102950175088103953E75081531
:1002B0000026FF000507190029658100C012010012
:1002C0000200000040C0167C040001010200010190
:1002D000C13601C1060011241FBECFEFDAE0DEBF38
:1002E000CDBF11E0A0E0B1E0EEE8F2E102C0059080
:1002F0000D92A034B107D9F722E0A0E4B1E001C02B
:100300001D92A73BB207E1F71CD2BFC779CE63307D
:1003100021F481E0763031F406C06B3019F481E0CD
:10032000753009F080E008956C3041F4773021F0A9
:10033000711104C082E0089581E0089580E008957D
:100340006B3021F481E0773039F407C06A3021F452
:10035000773011F482E0089580E008950F931F93A1
:10036000CF93DF93ACEBB0E020E030E0ED010DE3A4
:1003700011E06F3F59F44F3F49F4FE019491891702
:1003800029F1F8019491891318C020C0FD019491BE
:10039000981313C0E42FF0E088E0689FE00DF11D92
:1003A000112441E8429FC001439F900D1124E80FA2
:1003B000F91FE354FF4F84910AC02F5F3F4FAF579F
:1003C000BF4F22303105A9F680E001C081E0DF9106
:1003D000CF911F910F91089580910301882331F0EF
:1003E00080E091E09093ED018093EC0180E090E05B
:1003F000FC01EE0FFF1FE80FF91FEC53FE4F2081A9
:10040000318142814423C9F150910101521335C019
:1004100050910201531331C020910501422F50E049
:100420008091040190E00197481759071CF0109241
:10043000050103C02F5F20930501E0910501F0E065
:10044000E050FF4F868180930001E091EC01F09134
:10045000ED01138281E08093030180E091E09093AD
:10046000EF018093EE012FEF83EC99E02150804063
:100470009040E1F700C00000089501968830910592
:1004800009F0B6CF0895DF92EF92FF920F931F937A
:10049000CF93DF93C0E0D0E094EBE92E92E0F92E09
:1004A000DC2EE091EE01F091EF014FEF6FEF8081D4
:1004B00055DF8823D9F18E01000F111F0C0F1D1F6E
:1004C0000C531E4FF80141816081E091EE01F091E3
:1004D000EF01808143DF482F5091F0018091E701C7
:1004E0008823E1F0F80182818823C1F0E4EFF1E094
:1004F0002281818158130BC081E090E02D1511F00D
:1005000080E090E0892B19F08081481751F03396F4
:10051000EE16FF0669F76D2D81E002C06C2F80E0BA
:10052000D7D12196C830D10509F0BACFDF91CF914C
:100530001F910F91FF90EF90DF90089580E090E081
:1005400061E05091F001FC01EE0FFF1FE80FF91F71
:10055000EC53FE4F7281DC0128E0529FA00DB11DCB
:100560001124AC5BBE4F7C93252F382F40E02083B5
:1005700031834283DC01A352BE4F5C91511101C013
:100580006283019688309105E1F6089580E090E05D
:1005900020E030E0AC0163E0440F551F6A95E1F7BD
:1005A0004C5B5E4FFA01E20FF31F10822F5F3F4F4B
:1005B00028303105B9F701968031910549F780E07F
:1005C00090E0FC01EE0FFF1FE80FF91FEC53FE4F08
:1005D000209108013091090140910A012083318363
:1005E000428301968830910561F720934001309352
:1005F0004101409342010895CF92DF92EF92FF9222
:100600000F931F93CF93DF93C0E0D0E0FF24F394C8
:10061000FE01EE0FFF1FEC0FFD1FEC53FE4FC080DD
:10062000D180E280EE2009F47EC0860180914301F2
:100630000430A1F4173091F4E091EE01F091EF0154
:10064000908191110BC08F25809343012FEF84E39C
:100650009CE0215080409040E1F763C0811163C06D
:10066000063079F4173069F460E087E2F8D18FE161
:100670009EE40197F1F700C0000060E087E2EFD14F
:1006800049C08E2DB60143DE882321F180914001BF
:100690009091080189130DC02091410190910901A9
:1006A000291307C0C0924001D0924101E09242015B
:1006B0003AC0081304C080914101811759F060E0ED
:1006C00089E3CDD19FEF2EE585E091502040804019
:1006D000E1F727C08E2DB60127DE882341F0813057
:1006E00011F485E016C08230A9F486E012C08E2D88
:1006F000B60126DE882341F0813011F482E009C082
:10070000823041F483E005C00F3069F4163059F4AB
:1007100080E013D29FEF2AE683E091502040804092
:10072000E1F700C000002196C830D10509F070CF74
:10073000DF91CF911F910F91FF90EF90DF90CF90BD
:10074000089595D58823E9F3A8D0BFD08823E9F38D
:1007500080910B01880F880F880F895F80930B01B0
:100760002FEF84E39CE0215080409040E1F700C0EF
:10077000000080E091E09093EF018093EE0160E053
:1007800083E56DD1FF24F39401DF9091E501809121
:10079000E601981731F08091E6018093E501F0922F
:1007A000E8018091E8018111C6D11092E601109212
:1007B000F001EE24E3948091F00190910B019817E1
:1007C00018F31092E7011092DC01DDD48295807F4E
:1007D00081BB01E111E0C0E0D0E0F80160818181DE
:1007E00095D48093DC018091DC01FE01E352FE4F41
:1007F000882311F0F08211C010828091F001DE0197
:1008000028E0829FA00DB11D1124AC5BBE4F9C91CE
:100810008081981302C0E092E70121960E5F1F4F7E
:10082000C830D105D1F68091E601811105C08091D3
:10083000E7018111E092E60181DECEDDDDDE80910F
:100840004301882319F013D076D106C01CDE8AEB51
:100850008A95F1F700C0AAD48091F0018F5F809350
:10086000F001A9CF8091E80080FFFCCF0895E4EF6C
:10087000F1E080910E0190910F01A0911001819300
:100880009193A19382E0E43BF80799F71092B402A8
:100890001092F3011092F2010895E9DF81E0809354
:1008A000D70080EA8093D80082E189BD09B400FEB8
:1008B000FDCF80E98093D8001092E0001092EB0108
:1008C0008CE08093E200789408958091EB01089584
:1008D0000F931F93442309F477C0042F10E0F8010D
:1008E000E05EF109E830F105A0F5EA5AFF4F90917A
:1008F000B402C5C4882311F0916029C09E7F27C02F
:10090000882311F0926023C09D7F21C0882311F0BD
:1009100094601DC09B7F1BC0882311F0986017C096
:10092000977F15C0882311F0906111C09F7E0FC082
:10093000882311F090620BC09F7D09C0882311F0BD
:10094000906405C09F7B03C0882341F0906890931A
:10095000B402E4EFF1E020E030E00CC09F77F7CF85
:10096000928171817517B9F02F5F3F4F3396203414
:10097000310551F18823A1F390819111F5CFF9014F
:10098000EE0FFF1F2E0F3F1FF901EC50FE4F40836B
:100990005183628319C0A1E0B0E0961711F0A0E086
:1009A000B0E0AB2B09F3F901EE0FFF1F2E0F3F1F35
:1009B000F901EC50FE4F80910E0190910F01A09132
:1009C000100180839183A2831F910F91089510924B
:1009D000F1019091EB019923F9F09FB79093F10108
:1009E000F8948093E9009091E4009E5C2091E800E7
:1009F00025FD14C02091F1012FBF2091EB0122238E
:100A000059F02091E400921739F02FB72093F101AB
:100A1000F8948093E900EACF81E0089580E008959A
:100A200081E0D5DF811119C09091B4029093F1005B
:100A30001092F100E4EFF1E090819093F100339691
:100A400092E0E43BF907C1F79AE39093E8009091B4
:100A5000F1019FBF1092EA01089581E00895CF92BD
:100A6000DF92EF92CF93DF93C090F401D090F50125
:100A7000E090F601D091B4026093B4028093F40147
:100A80001092F5011092F601CBDFC82F811116C02C
:100A90002FEF80E792E0215080409040E1F700C0C6
:100AA00000001092F4011092B402BADFC092F40177
:100AB000D092F501E092F601D093B4028C2FDF9131
:100AC000CF91EF90DF90CF9008951F93CF93DF9356
:100AD000182FD62FC72F82E07ADF81110DC0109317
:100AE000F100D093F100C093F1009AE39093E800F5
:100AF0009091F1019FBF01C081E0DF91CF911F91E3
:100B000008956091F2017091F3018091B502909186
:100B1000B6026817790769F083E0D7DF81110AC050
:100B20002091F2013091F3013093B6022093B50287
:100B3000089580E0089574DFE4CFCF93E82FF0E0CC
:100B4000EE0FFF1FEF5DFE4F808191819093F301C7
:100B50008093F201D6DFC82F81110EC02FEF80E7FE
:100B600092E0215080409040E1F700C000001092D8
:100B7000F3011092F201C5DF8C2FCF9108951F92DF
:100B80000F920FB60F9211248F939F93EF93FF93C1
:100B90008091E1001092E10083FF0FC01092E90004
:100BA00091E09093EB001092EC0092E39093ED00B3
:100BB00098E09093F0001092EB0182FF34C0809196
:100BC000EB01882381F180910C01882361F18091F0
:100BD000E9018F5F8093E901837029F581E08093BB
:100BE000E9008091E80085FF1EC08091EA018F5FD7
:100BF0008093EA0190910C01891315C01092EA01CB
:100C00008091B4028093F1001092F100E4EFF1E0E2
:100C100080818093F100339682E0E43BF807C1F7CE
:100C20008AE38093E800FF91EF919F918F910F905D
:100C30000FBE0F901F9018951F920F920FB60F9234
:100C40001124FF920F931F932F933F934F935F9322
:100C50006F937F938F939F93AF93BF93CF93DF93C4
:100C6000EF93FF931092E9008091E80083FF15C194
:100C7000F090F1008091F100C091F1009091F100AD
:100C8000D0E0D92B0091F1009091F10010E0192BE8
:100C90002091F1006091F10092EF9093E80086308E
:100CA00009F049C08EEB91E04DEF51E0FC01A591B8
:100CB000B491CA17DB07D9F4FC013296A591B4911F
:100CC0000A171B07A1F4FC01349645915491FC01CD
:100CD0003696849130E0362B2F3F310519F010F015
:100CE0002FEF30E0281708F4822F3EEF0CC0079654
:100CF00048175907D9F6D1C0490F511D891B3093A8
:100D0000E8008823A9F09091E800292F2570D9F3F5
:100D100092FDC6C0982F813408F090E4FA01292F83
:100D2000222351F364916093F10021503196F8CF62
:100D3000903449F3B5C0853041F48EEF8093E800DC
:100D400091DDC068C093E300ABC0893039F5F11084
:100D50006AC0C093EB018EEF8093E80041E08FEC16
:100D600092E04093E9009C012F5F3F4FFC015491BA
:100D70005093EB00552359F0F90124912093EC0096
:100D80009C012D5F3F4F3196E491E093ED004F5F62
:100D9000453011F0C901E5CF8EE140C0883039F40B
:100DA000F0E8FF1240C05EDD8091EB0161C081116F
:100DB00014C058DD82E8F8120AC00093E90080915F
:100DC000EB0085FB882780F91092E90001C080E0E4
:100DD0008093F1001092F1005CC0982F9D7F9130BC
:100DE00011F592E0F9121FC0CD2B09F056C00F7714
:100DF0009FEF900F943008F050C09EEF9093E80062
:100E00000093E900833009F448C089E18093EB0046
:100E100081E090E001C0880F0A95EAF78093EA002C
:100E20001092EA003DC0012BC1F5E1EAFE1223C099
:100E3000813099F417DD8091B4028093F100109213
:100E4000F100E4EFF1E084EB92E020812093F100E7
:100E500033968E179F07C9F71CC0823021F402DD3C
:100E600080910C0105C08330C1F4FCDC80910D0140
:100E70008093F1000EC0F1E2FF120FC08A3029F416
:100E8000D0930C011092EA0104C08B3031F4C0936E
:100E90000D018EEF8093E80003C081E28093EB00A8
:100EA000FF91EF91DF91CF91BF91AF919F918F9182
:100EB0007F916F915F914F913F912F911F910F9172
:100EC000FF900F900FBE0F901F901895443409F4B7
:100ED0003FC028F4423451F0433409F185C0453411
:100EE00009F44FC0463409F466C07EC045B121E024
:100EF00030E0662349F0B90102C0660F771F8A957A
:100F0000E2F7CB01842B09C0B90102C0660F771F3D
:100F10008A95E2F7CB018095842385B94AC048B110
:100F200021E030E0662349F0B90102C0660F771F67
:100F30008A95E2F7CB01842B09C0B90102C0660F84
:100F4000771F8A95E2F7CB018095842388B931C059
:100F50004BB121E030E0662349F0B90102C0660FD1
:100F6000771F8A95E2F7CB01842B09C0B90102C033
:100F7000660F771F8A95E2F7CB01809584238BB9A2
:100F800018C04EB121E030E0662349F0B90102C03B
:100F9000660F771F8A95E2F7CB01842B09C0B90150
:100FA00002C0660F771F8A95E2F7CB0180958423F4
:100FB0008EB981E0089541B321E030E0662349F025
:100FC000B90102C0660F771F8A95E2F7CB01842B27
:100FD00009C0B90102C0660F771F8A95E2F7CB01FD
:100FE0008095842381BBE5CF80E00895443409F4E3
:100FF0003FC028F4423451F0433409F185C04534F0
:1010000009F44FC0463409F466C07EC044B121E003
:1010100030E0662349F0B90102C0660F771F8A9558
:10102000E2F7CB01842B09C0B90102C0660F771F1C
:101030008A95E2F7CB018095842384B94AC047B1F1
:1010400021E030E0662349F0B90102C0660F771F46
:101050008A95E2F7CB01842B09C0B90102C0660F63
:10106000771F8A95E2F7CB018095842387B931C039
:101070004AB121E030E0662349F0B90102C0660FB1
:10108000771F8A95E2F7CB01842B09C0B90102C012
:10109000660F771F8A95E2F7CB01809584238AB982
:1010A00018C04DB121E030E0662349F0B90102C01B
:1010B000660F771F8A95E2F7CB01842B09C0B9012F
:1010C00002C0660F771F8A95E2F7CB0180958423D3
:1010D0008DB981E0089540B321E030E0662349F006
:1010E000B90102C0660F771F8A95E2F7CB01842B06
:1010F00009C0B90102C0660F771F8A95E2F7CB01DC
:101100008095842380BBE5CF80E00895643479F036
:1011100030F4623451F06334C1F446B10BC065342D
:1011200041F0663491F44FB105C043B103C049B1F9
:1011300001C04CB121E030E0B90102C0660F771F59
:101140008A95E2F7CB018423089580E00895CF9338
:10115000DF93C82FD62F642F4D2FB8DE4D2F61E0BF
:101160008C2FDF91CF9142CF40E0F1CFCF93DF932F
:10117000C82FD62F642F4D2FA9DE4D2F60E08C2F66
:10118000DF91CF9133CF282F2A70922F9695282F59
:101190002570220F292B822F8C70869586952370BF
:1011A00094E0299F90011124822B08950F931F939F
:1011B000CF93DF93CFE2D1E008811981602F812F97
:1011C000D3DF41E0602F812FD1DF229681E0CF3342
:1011D000D80791F781E0DF91CF911F910F9108958A
:1011E00066E484E0C1DF66E485E0BEDF66E486E0B5
:1011F000BBDF66E487E0B8DFD9DF40E064E483E08A
:10120000B5DF40E064E482E0B1DF41E062E486E023
:10121000ADDF41E062E482E0A9DF41E062E483E027
:10122000A5DF41E062E481E0A1DF40E066E480E028
:101230009DDF40E066E481E099DF40E065E482E024
:1012400095DF40E064E485E091DF40E064E486E01F
:101250008DDF40E063E487E089DF40E062E480E026
:1012600085DF40E062E487E081DF81E00895E1E628
:10127000F0E080E880831082B3DF81E00895EE0F14
:0E128000FF1F0590F491E02D0994F894FFCF24
:10128E00000F070002000001FFFF00017D0100FFBB
:10129E00FF42054204450644074306440444004405
:1012AE0001CD00B700B600B500E200E900EA004249
:1012BE000542044506440743064404440044010025
:00000001FF
