:1000000062C100007BC1000079C1000077C100001F
:1000100075C1000073C1000071C100006FC1000014
:100020006DC100006BC10000D2C500002BC60000EE
:1000300065C1000063C1000061C100005FC1000034
:100040005DC100005BC1000059C1000057C1000044
:1000500055C1000053C1000051C100004FC1000054
:100060004DC100004BC1000049C1000047C1000064
:1000700045C1000043C1000041C100003FC1000074
:100080003DC100003BC1000039C1000037C1000084
:1000900035C1000033C1000031C100002FC1000094
:1000A0002DC100002BC1000029C100000000001F6D
:1000B0001A161D2B2900002008071B141E00002102
:1000C00015090600E0000022170A19E104000023C8
:1000D0001C0B05E300000024180D1100E2000025B0
:1000E0000C0E102C00000026120F36E7E600002749
:1000F000133337272800002E2D34384B37000035B6
:100100002F30464E0000005331E4E5440000452AFC
:10011000504F51430052223B3F421E403C4A243A3A
:100120003E211F413D4D254C26232000F0010000BB
:100130001F1A161D2B2900002008071B141E000083
:100140002115090600E0000022170A19E104000049
:10015000231C0B050039000024180D1100E20000DB
:10016000250C0E102C00000026120F3600E60000B1
:1001700027133337622800002E2D34384B630000DC
:10018000352F30464E0000005331E4E54400004571
:100190002A504F514300525D3B3F4259403C4A5F19
:1001A0003A3E5C5A413D4D604C615E5B00F000019F
:1001B0000000AD0212000200002B023B00210000F3
:1001C0003D0209002200007F022E0021010056029C
:1001D0000900220100660219000300002702040141
:1001E00003090413021202030904ED01242403503D
:1001F0000052004F004D004900430052004F0020C4
:10020000004B004500590042004F0041005200449D
:100210000000001203500052004F004D00490043FF
:100220000052004F0000000403090409023B0002D1
:100230000100C0320904000001030101000921117D
:10024000010001222E000705810340000A09040174
:10025000000103000000092111010001221900071B
:1002600005820308000A050C0901A1018503150197
:10027000269C0219012A9C02751095018100C00577
:10028000010906A101050719E029E71500250175F7
:100290000195088102950175088103953E75081541
:1002A0000026FF000507190029658100C012010022
:1002B0000200000040C0167C0400010102000101A0
:1002C000C13601C1060011241FBECFEFDAE0DEBF48
:1002D000CDBF11E0A0E0B1E0E8EEF1E102C0059091
:1002E0000D92A834B107D9F722E0A8E4B1E001C02B
:1002F0001D92AF3BB207E1F764D26CC781CE83E0B9
:1003000090910B01990F90930B0190910B019F5FBE
:1003100090930B018150A1F70895CF92DF92EF9255
:10032000FF920F931F93CF93DF9300D000D0CDB7F0
:10033000DEB783FB992790F9998382FB992790F97F
:100340009A8381FB992790F99B8381708C83CE01DE
:1003500001967C0101E111E06E0195E0C90ED11C0E
:10036000F70141917F01F8016081818111D70E5F12
:100370001F4FEC14FD04A1F7FAEBFA95F1F700C05A
:100380000F900F900F900F90DF91CF911F910F91D1
:10039000FF90EF90DF90CF900895633029F481E0D3
:1003A000763039F080E005C06B30E1F781E07530E0
:1003B000C9F708956C3041F4773021F0711104C011
:1003C00082E0089581E0089580E008956B3029F47B
:1003D00081E0773009F080E008956A30E1F7773006
:1003E000D1F782E00895FC01A091E501B091E6010A
:1003F00013961C9281E08383F093E801E093E70178
:10040000089580910301882331F080E091E090937A
:10041000E6018093E5010895962F94239F3F41F0D4
:10042000ECEAF0E0E4918E1319C090E080E01DC08A
:100430004CEA50E0FA019491891771F02DE231E015
:10044000F9019491891741F0FA014491841721F040
:10045000F9012491821318C081E00895EDE2F1E0E2
:10046000E4918E1311C081E890E028E0629FF001D2
:10047000112450E04F5F5F4FE40FF51FE80FF91FA5
:10048000E455FF4F8491089580E00895BADF90E02D
:1004900080E0FC01EE0FFF1FE80FF91FE453FE4F51
:1004A000208131814281442361F150910101521335
:1004B00028C050910201531324C08091050120915E
:1004C00004012150330B82171306BCF01092050172
:1004D000E0910501F0E0E050FF4F8681809300013C
:1004E00080E091E080DF2FEF83EC99E021508040A5
:1004F0009040E1F700C0000008958F5F80930501F0
:10050000E7CF01968830910521F60895DF92EF92AA
:10051000FF920F931F93CF93DF93D0E0C0E09DEB4A
:10052000E92E92E0F92EDC2EE091E701F091E8014E
:100530004FEF6FEF808170DF882389F18E01000F0C
:10054000111F0C0F1D1F04531E4FF80141816081C4
:10055000E091E701F091E80180815EDF482F509142
:10056000E9018091F401882399F0F80182818823C0
:1005700079F0EDEFF1E08181581303C08281D81644
:10058000B1F03396EE16FF06B1F76D2D81E002C093
:100590006C2F80E0D3D12196C830D10521F6DF91B0
:1005A000CF911F910F91FF90EF90DF900895808180
:1005B0004813E7CFF0CF90E080E061E05091E9018F
:1005C000FC01EE0FFF1FE80FF91FE453FE4F72818D
:1005D00028E0529FD0011124A45BBE4FA80FB91F81
:1005E0007C93252F382F40E0208331834283DC0128
:1005F000A651BE4F5C91511101C0628301968830B3
:100600009105E1F6089590E080E0FC0133E0EE0F03
:10061000FF1F3A95E1F7E45BFE4F108211821282D0
:1006200013821482158216821782019680319105F9
:1006300061F790E080E0FC01EE0FFF1FE80FF91F6B
:10064000E453FE4F209108013091090140910A01C5
:1006500020833183428301968830910561F720938E
:1006600048013093490140934A010895CF92DF92A7
:10067000EF92FF920F931F93CF93DF93D0E0C0E0F0
:10068000FF24F394FE01EE0FFF1FEC0FFD1FE45358
:10069000FE4FC080D180E280EE2009F484C01C2D82
:1006A0000D2D80914B011430B9F4073009F062C070
:1006B000E091E701F091E801908191115BC08F25F5
:1006C00080934B012FEF84E39CE0215080409040C9
:1006D000E1F700C0000067C0811165C0163009F065
:1006E0004BC0073009F048C060E087E2E0D18FE1FD
:1006F0009EE40197F1F700C0000060E087E2D7D1E7
:100700009FEF2AE683E0915020408040E1F7E1CF5F
:10071000811304C080914901801759F060E089E39A
:10072000C6D19FEF2EE585E0915020408040E1F753
:10073000D0CF8E2DB6013EDE882349F0813019F4EA
:1007400085E023D2DDCF8230D9F686E0FACF8E2D38
:10075000B6013CDE882341F0813011F482E0F1CF14
:10076000823071F683E0EDCF1F30E9F40630D9F422
:1007700080E0E7CF811117C08E2DB6010EDE8823F1
:10078000C1F280914801909108018913C1CF209155
:100790004901909109012913BBCFC0924801D09221
:1007A0004901E0924A012196C830D10509F06ACF8B
:1007B000DF91CF911F910F91FF90EF90DF90CF903D
:1007C000089509D48823E9F39ED0B5D08823E9F3AE
:1007D00096DD2FEF84E39CE0215080409040E1F7CC
:1007E00000C0000080E091E09093E8018093E70171
:1007F00060E083E55CD111E006DF9091F201809129
:10080000F301981731F08091F3018093F201109376
:10081000F5018091F5018111B6D11092F30110928A
:10082000E9018091E90190910B01981728F310924A
:10083000F4011092E40171DD89E1E82E81E0F82EE7
:10084000D0E0C0E0F7016081818183D48093E4012E
:100850008091E401DE01A651BE4F8823F9F01C937C
:10086000219682E0E80EF11CC830D10559F780913D
:10087000F301811105C08091F40181111093F301FE
:100880009ADEF4DE80914B018823D1F026D07BD113
:100890008091E9018F5F8093E901C3CF1C92E091C1
:1008A000E90128E0E29FF0011124E45BFE4FEC0F28
:1008B000FD1F90818C919813D3CF1093F401D0CF6A
:1008C000E5DD24DE9AEB9A95F1F700C023D3E0CF63
:1008D0008091E80080FFFCCF0895EDEFF1E080917A
:1008E0000E0190910F01A091100181939193A1931A
:1008F00082E0ED3BF80799F71092BD021092FB01E0
:100900001092FA010895E9DF81E08093D70080EA30
:100910008093D80082E189BD09B400FEFDCF80E953
:100920008093D8001092E0001092BE028CE0809379
:10093000E200789408958091BE020895442309F45A
:100940006DC0E0E2E40FE83058F4F0E0E451F74F16
:100950009091BD0239C48823B9F091609093BD0293
:10096000EDEFF1E030E020E08823D1F190819111AA
:100970003DC0F901EE0FFF1FE20FF31FE350FE4FE2
:1009800040835183628308959E7FE8CF882311F0CE
:100990009260E4CF9D7FE2CF882311F09460DECF98
:1009A0009B7FDCCF882311F09860D8CF977FD6CF7C
:1009B000882311F09061D2CF9F7ED0CF882311F091
:1009C0009062CCCF9F7DCACF882311F09064C6CFB0
:1009D0009F7BC4CF882311F09068C0CF9F77BECF94
:1009E0009181951303C09281961741F02F5F3F4F7D
:1009F00033962034310509F0B7CF0895F901EE0F91
:100A0000FF1FE20FF31FE350FE4F80910E01909104
:100A10000F01A091100180839183A2830895109209
:100A2000F7019091BE029923F9F09FB79093F701D7
:100A3000F8948093E9009091E4009E5C2091E80096
:100A400025FD14C02091F7012FBF2091BE02222363
:100A500059F02091E400921739F02FB72093F70155
:100A6000F8948093E900EACF81E0089580E008954A
:100A700081E0D5DF811119C09091BD029093F10002
:100A80001092F100EDEFF1E090819093F100339638
:100A900092E0ED3BF907C1F79AE39093E80090915B
:100AA000F7019FBF1092FC01089581E00895CF9255
:100AB000DF92EF92CF93DF93C090FD01D090FE01C3
:100AC000E090FF01D091BD026093BD028093FD01D3
:100AD0001092FE011092FF01CBDFC82F811116C0CA
:100AE0002FEF80E792E0215080409040E1F700C076
:100AF00000001092FD011092BD02BADFC092FD010C
:100B0000D092FE01E092FF01D093BD028C2FDF91C5
:100B1000CF91EF90DF90CF9008951F93CF93DF9305
:100B2000182FD62FC72F82E07ADF811110C01093C3
:100B3000F100D093F100C093F1009AE39093E800A4
:100B40009091F7019FBFDF91CF911F91089581E0B0
:100B5000FACF6091FA017091FB018091F8019091B8
:100B6000F9016817790769F083E0D7DF81110AC0BE
:100B70002091FA013091FB013093F9012093F801A3
:100B8000089580E0089574DFE4CFCF93E82FF0E07C
:100B9000EE0FFF1FE75DFE4F808191819093FB0177
:100BA0008093FA01D6DFC82F81110EC02FEF80E7A6
:100BB00092E0215080409040E1F700C00000109288
:100BC000FB011092FA01C5DF8C2FCF9108951F927F
:100BD0001FB61F9211248F939F93EF93FF938091E1
:100BE000E1001092E10083FF0FC01092E90091E054
:100BF0009093EB001092EC0092E39093ED0098E05C
:100C00009093F0001092BE0282FF34C08091BE0229
:100C1000882381F180910C01882361F18091F60194
:100C20008F5F8093F601837029F581E08093E9005E
:100C30008091E80085FF1EC08091FC018F5F80934A
:100C4000FC0190910C01891315C01092FC01809158
:100C5000BD028093F1001092F100EDEFF1E0808190
:100C60008093F100339682E0ED3BF807C1F78AE309
:100C70008093E800FF91EF919F918F911F901FBE8D
:100C80001F9018951F920F920FB60F921124EF929A
:100C9000FF920F931F932F933F934F935F936F9305
:100CA0007F938F939F93AF93BF93CF93DF93EF93F4
:100CB000FF931092E9008091E80083FF70C0D0910B
:100CC000F100C091F1000091F1008091F100182F26
:100CD000E090F1008091F100F82E2091F100309128
:100CE000F10082EF8093E800C63009F064C08EEA1C
:100CF00091E0FC01459154910417150709F049C092
:100D0000FC01329645915491E416F50609F041C074
:100D1000FC013496459154910696FC0184912F3F35
:100D2000310519F010F02FEF30E0281708F4822F6A
:100D30003EEF9091E800292F2570D9F392FD12C063
:100D4000982F813408F090E4FA01292F21112DC049
:100D5000490F511D282F291B3093E800891323C008
:100D6000803408F5FF91EF91DF91CF91BF91AF9162
:100D70009F918F917F916F915F914F913F912F91B3
:100D80001F910F91FF90EF900F900FBE0F901F904B
:100D900018950796F1E08D3E9F0709F0AACF81E2F2
:100DA0008093EB00DFCF822FC4CF64916093F1007A
:100DB00021503196CBCFC53041F48EEF8093E800BF
:100DC00087DD00680093E300CDCFC93049F5D1112C
:100DD0006AC00093BE028EEF8093E80021E08FEBA3
:100DE00092E02093E900AC014F5F5F4FFC0134912A
:100DF0003093EB00332391F0FA0144914093EC00DF
:100E00003196E4910396E093ED002F5F253049F78A
:100E10008EE18093EA001092EA00A4CFCA01F5CFD8
:100E2000C83049F4D03809F03EC052DD8091BE028E
:100E30008093F10012C0C11114C04ADDD23849F4C8
:100E4000E092E900C091EB00C5FBCC27C0F91092FD
:100E5000E900C093F1001092F1008EEF8093E8005A
:100E600081CF8C2F8D7F8130F1F4D230E1F4012BD2
:100E700009F095CF2E2D2F778FEF820F843008F059
:100E80008ECF8EEF8093E8002093E900C33009F401
:100E900086CF89E18093EB0081E090E001C0880F6C
:100EA0002A95EAF7B6CFEF2809F079CFD13A11F5B4
:100EB000C13099F40DDD8091BD028093F100109254
:100EC000F100EDEFF1E08DEB92E020812093F10055
:100ED00033968E179F07C9F7C0CFC23021F4F8DCD4
:100EE00080910C01A5CFC33009F059CFF1DC80917E
:100EF0000D019ECFD13209F052CFCA3029F41093A0
:100F00000C011092FC01A9CFCB3009F048CF00931F
:100F10000D01A3CF0F931F93CF93DF93C7E3D1E0CE
:100F200008811981602F812F40D141E0602F812FEE
:100F30003ED1229681E0C734D80791F781E0DF9156
:100F4000CF911F910F91089566E484E02ED166E45D
:100F500085E02BD166E486E028D166E487E025D1E0
:100F6000D9DF40E064E483E022D140E064E482E041
:100F70001ED141E062E486E01AD141E062E482E001
:100F800016D141E062E483E012D141E062E481E005
:100F90000ED140E066E480E00AD140E066E481E002
:100FA00006D140E065E482E002D140E064E485E0FF
:100FB000FED040E064E486E0FAD040E063E487E0FD
:100FC000F6D040E062E480E0F2D040E062E487E006
:100FD000EED081E00895E1E6F0E080E880831082C1
:100FE000B3DF81E00895282F4434B9F130F442345E
:100FF000A9F0433419F180E008954534E9F146340D
:10100000D1F781E090E001C0880F2A95EAF791B30B
:10101000662309F440C0892B81BB0BC081E090E0BE
:1010200001C0880F2A95EAF795B1662321F0892B34
:1010300085B981E0089580958923FACF81E090E019
:1010400001C0880F2A95EAF798B1662319F0892B19
:1010500088B9EFCF80958923FBCF81E090E001C074
:10106000880F2A95EAF79BB1662319F0892B8BB973
:10107000E0CF80958923FBCF81E090E001C0880F0D
:101080002A95EAF79EB1662319F0892B8EB9D1CF44
:1010900080958923FBCF80958923BECF282F4434A8
:1010A000B9F130F44234A9F0433419F180E00895E5
:1010B0004534E9F14634D1F781E090E001C0880F72
:1010C0002A95EAF790B3662309F440C0892B80BBC8
:1010D0000BC081E090E001C0880F2A95EAF794B137
:1010E000662321F0892B84B981E0089580958923B6
:1010F000FACF81E090E001C0880F2A95EAF797B116
:10110000662319F0892B87B9EFCF80958923FBCF10
:1011100081E090E001C0880F2A95EAF79AB1662332
:1011200019F0892B8AB9E0CF80958923FBCF81E024
:1011300090E001C0880F2A95EAF79DB1662319F067
:10114000892B8DB9D1CF80958923FBCF80958923B9
:10115000BECF982F6434C1F030F4623451F0633460
:1011600089F080E00895653489F06634D1F78FB155
:1011700001C083B121E030E001C0220F9A95EAF767
:101180008223089586B1F6CF89B1F4CF8CB1F2CF26
:10119000CF93DF93C82FD62F642F4D2F24DF4D2FF1
:1011A00061E08C2FDF91CF9179CF40E0F1CFCF93E9
:1011B000DF93C82FD62F642F4D2F15DF4D2F60E002
:1011C0008C2FDF91CF916ACFEE0FFF1F0590F49126
:1011D000E02D0994F894FFCFAB04C604CC04D204EC
:0811E000D804DE04E404EA0473
:1011E800000F070002000001FFFF00017D0100FF62
:1011F800FF4604460546064607420542044506449E
:10120800074306440444004401CD00B700B600B5C6
:1012180000E200E900EA00420542044506440743AB
:081228000644044400440100E7
:00000001FF
