:10000000E1C00000FBC00000F9C00000F7C0000024
:10001000F5C00000F3C00000F1C00000EFC0000018
:10002000EDC00000EBC00000D8C3000031C40000E8
:10003000E5C00000E3C00000E1C00000DFC0000038
:10004000DDC00000DBC00000D9C00000D7C0000048
:10005000D5C00000D3C00000D1C00000CFC0000058
:10006000CDC00000CBC00000C9C00000C7C0000068
:10007000C5C00000C3C00000C1C00000BFC0000078
:10008000BDC00000BBC00000B9C00000B7C0000088
:10009000B5C00000B3C00000B1C00000AFC0000098
:1000A000ADC00000ABC00000A9C00000000100000E
:1000B000AB01120002000029013B002100003B01BE
:1000C00009002200007D012E0021010054010900D9
:1000D0002201006401190003000025010401030945
:1000E0000411011202030904EB00242403500052FE
:1000F000004F004D004900430052004F0020004BCC
:10010000004500590042004F0041005200440000E9
:10011000001203500052004F004D004900430052AE
:10012000004F0000000403090409023B0002010023
:10013000C03209040000010301010009211101007E
:1001400001222E000705810340000A090401000175
:100150000300000009211101000122190007058296
:100160000308000A050C0901A10185031501269C5D
:100170000219012A9C02751095018100C005010930
:1001800006A101050719E029E7150025017501956C
:10019000088102950175088103953E7508150026B2
:1001A000FF000507190029658100C0120100020047
:1001B000000040C0167C0400010102000101C136AC
:1001C00001C1060011241FBECFEFDAE0DEBFCDBFB4
:1001D00011E0A0E0B1E0E2EBF3E102C005900D9286
:1001E000A63BB107D9F723E0A6EBB1E001C01D9211
:1001F000A730B207E1F7A4D50C94CF0901CFEDEBFE
:10020000F1E08091020190910301A091040181939A
:100210009193A19322E0ED37F207C9F710927D0286
:100220001092BB011092BA010895EDEBF1E08091BC
:10023000020190910301A091040181939193A193F4
:1002400022E0ED37F207C9F710927D021092BB0150
:100250001092BA0181E08093D70080EA8093D800A1
:1002600082E189BD09B400FEFDCF80E98093D8000A
:100270001092E00010927E028CE08093E20078946D
:10028000089580917E0208951092B70180917E02B8
:10029000882329F18FB78093B701F89481E0809388
:1002A000E9009091E4009E5C8091E80085FD4FC0DC
:1002B00021E00EC08091E400981789F08FB78093F9
:1002C000B701F8942093E9008091E80085FD3FC0D4
:1002D0008091B7018FBF80917E028111EBCF409159
:1002E000BA015091BB018091B8019091B9014817B2
:1002F000590709F408951092B70180917E0288236E
:10030000C9F38FB78093B701F89482E08093E90036
:100310009091E4009E5C8091E80085FD31C022E070
:100320000EC08091E400981729F38FB78093B7012E
:10033000F8942093E9008091E80085FD21C0809128
:10034000B7018FBF80917E028111EBCF089580911C
:100350007D028093F1001092F100EDEBF1E08081DD
:100360008093F100339682E0ED37F807C1F78AE316
:100370008093E8008091B7018FBF1092BC01AFCF8E
:1003800083E08093F1004093F1005093F1008AE301
:100390008093E8008091B7018FBF8091BA0190915E
:1003A000BB019093B9018093B8010895442331F1C2
:1003B000E0E2E40FE83018F1811179C0EEEBF1E0F2
:1003C00090E080E02081251731F00196339680344B
:1003D0009105C1F7089521812613F7CFFC01EE0F97
:1003E000FF1FE80FF91FE354FE4F80910201909127
:1003F0000301A091040180839183A2830895F0E01A
:10040000EF52F64F90917D02C4C7882309F44BC088
:10041000906490937D020895882309F440C090620F
:1004200090937D0208958823B1F1906190937D02AD
:100430000895882361F1986090937D020895882340
:1004400011F1946090937D0208958823C1F0926029
:1004500090937D020895882371F0916090937D02BE
:100460000895882321F0906890937D0208959F77E6
:1004700090937D0208959E7F90937D0208959D7FC5
:1004800090937D0208959B7F90937D020895977FBE
:1004900090937D0208959F7E90937D0208959F7DA5
:1004A00090937D0208959F7B90937D020895EDEBDC
:1004B000F1E090E080E0208121110BC0FC01EE0F03
:1004C000FF1FE80FF91FE354FE4F408351836283FF
:1004D0000895019633968034910569F70895409107
:1004E000BA015091BB018091B8019091B9014817B0
:1004F000590711F480E008951092B70180917E02AF
:10050000882329F18FB78093B701F89482E0809314
:10051000E9009091E4009E5C8091E80085FD19C09F
:1005200022E00EC08091E400981789F08FB7809385
:10053000B701F8942093E9008091E80085FD09C097
:100540008091B7018FBF80917E028111EBCF81E056
:10055000089583E08093F1004093F1005093F100FF
:100560008AE38093E8008091B7018FBF8091BA0140
:100570009091BB019093B9018093B80180E00895F8
:10058000E82FF0E0EE0FFF1FEB5FFE4F208131817F
:100590003093BB012093BA018091B8019091B901C9
:1005A0002817390781F42FEF80E792E0215080402F
:1005B0009040E1F700C000001092BB011092BA0118
:1005C0008EDF80E008951092B70180917E0288232B
:1005D00029F18FB78093B701F89482E08093E90006
:1005E0009091E4009E5C8091E80085FD19C042E096
:1005F0000EC08091E400981789F08FB78093B701FF
:10060000F8944093E9008091E80085FD09C080914D
:10061000B7018FBF80917E028111EBCF81E00895F9
:1006200083E08093F1002093F1003093F1008AE39E
:100630008093E8008091B7018FBF8091BA019091BB
:10064000BB019093B9018093B801ADCF1092B7016F
:1006500080917E02882329F18FB78093B701F894A7
:1006600081E08093E9009091E4009E5C8091E80035
:1006700085FD19C021E00EC08091E400981789F033
:100680008FB78093B701F8942093E9008091E80038
:1006900085FD09C08091B7018FBF80917E028111D5
:1006A000EBCF81E0089580917D028093F10010925C
:1006B000F100EDEBF1E080818093F100339682E070
:1006C000ED37F807C1F78AE38093E8008091B7011E
:1006D0008FBF1092BC0180E008950F931F93CF93BA
:1006E000DF931091BD01D091BE010091BF01C09177
:1006F0007D0290EE692791E001C0990F6A95EAF7B3
:1007000090937D028093BD011092BE011092BF01B3
:100710001092B70180917E02882329F18FB78093D0
:10072000B701F89481E08093E9009091E4009E5C29
:100730008091E80085FD1DC021E00EC08091E4009D
:10074000981789F08FB78093B701F8942093E90048
:100750008091E80085FD0DC08091B7018FBF809129
:100760007E028111EBCF81E0DF91CF911F910F913C
:10077000089580917D028093F1001092F100EDEBDD
:10078000F1E080818093F100339622E0ED37F207AB
:10079000C1F78AE38093E8008091B7018FBF109280
:1007A000BC018FEF90E722E0815090402040E1F7BC
:1007B00000C000001092BD0110927D0247DF10932F
:1007C000BD01D093BE010093BF01C0937D0280E0C4
:1007D000DF91CF911F910F9108951F921FB61F9225
:1007E00011248F939F93EF93FF938091E1001092D8
:1007F000E10083FF0FC01092E90091E09093EB00BD
:100800001092EC0092E39093ED0098E09093F0004A
:1008100010927E0282FF34C080917E02882381F193
:1008200080910001882361F18091B6018F5F8093F0
:10083000B601837029F581E08093E9008091E8009A
:1008400085FF1EC08091BC018F5F8093BC01909199
:100850000001891315C01092BC0180917D02809324
:10086000F1001092F100EDEBF1E080818093F10056
:10087000339682E0ED37F807C1F78AE38093E8000A
:10088000FF91EF919F918F911F901FBE1F90189520
:100890001F921FB61F9211242F933F934F935F9384
:1008A0006F937F938F939F93AF93BF93CF93EF9368
:1008B000FF931092E9008091E80083FF49C0709196
:1008C000F1009091F1002091F1008091F100382F1A
:1008D0004091F1008091F100582F8091F100C0917A
:1008E000F10062EF6093E800963009F445C095305E
:1008F00009F40FC1993009F460C0983009F475C04B
:10090000992309F44BC0892F8D7F813009F058C09D
:10091000723009F055C021153105D1F44F778FEFB2
:10092000840F8430A8F48EEF8093E8004093E900B0
:10093000933071F089E18093EB0081E090E001C099
:10094000880F4A95EAF78093EA001092EA0003C004
:1009500081E28093EB00FF91EF91CF91BF91AF9136
:100960009F918F917F916F915F914F913F912F91C7
:100970001F901FBE1F901895ECEAF0E065917491EE
:100980006217730709F03FC0EEEAF0E065917491D9
:1009900046175707C1F52CEA30E058C08091E800AF
:1009A00080FFFCCF723809F4D2C09093F10010920E
:1009B000F1008EEF8093E800CECF772309F408C1D1
:1009C000452B09F0C5CF713A09F4CBC0713209F05B
:1009D000BFCF9A3009F499C19B3009F0B9CF209369
:1009E00001018EEF8093E800B6CF703849F780910F
:1009F000E80080FFFCCF80917E028093F1008EEFB3
:100A00008093E800A8CFE3EBF0E06591749126179E
:100A1000370751F4E5EBF0E06591749146175707FD
:100A200019F423EB30E012C0EAEBF0E06591749129
:100A30002617370709F04BC0ECEBF0E06591749195
:100A40004617570709F043C02AEB30E0F901349606
:100A5000A591B4912A5F3F4FF90124919C2F8F3FBC
:100A6000910519F010F08FEF90E0482F281708F447
:100A7000422F5EEF8091E800982F9570D9F382FDA8
:100A80006ACF942F413408F090E4442309F490C0D5
:100A9000FD016FEF690F70E09D012F5F3F4F260F43
:100AA000371F84918093F1003196E217F307C9F75D
:100AB0006F5F7F4FA60FB71F842F891B5093E800ED
:100AC000491303C0403409F046CF482FD3CFE1EC9F
:100AD000F0E0659174912617370751F4E3ECF0E0EC
:100AE000659174914617570719F421EC30E0AECFA9
:100AF000E8ECF0E06591749126173707A9F4EAEC69
:100B0000F0E0659174914617570771F428EC30E0D6
:100B10009DCF8EEF8093E8008091E80080FFFCCFAE
:100B200020682093E30017CFEFECF0E0659174911B
:100B30002617370709F0B4C0E1EDF0E06591749134
:100B40004617570709F0ACC02FEC30E07FCF409339
:100B5000E9009091EB0095FB992790F91092E9003C
:100B600024CF913089F0923039F1933009F0F0CEF2
:100B70008091E80080FFFCCF809101018093F1001B
:100B80008EEF8093E800E7CE8091E80080FFFCCFF5
:100B900080917D028093F1001092F100EDEBF1E085
:100BA00080818093F100339682E0ED37F807C1F73A
:100BB0008EEF8093E800CFCE8091E80080FFFCCFDD
:100BC000809100018093F1008EEF8093E800C3CE06
:100BD00020937E028EEF8093E80081E08093E9000D
:100BE000EDEBF1E0E491E093EB002EEB31E0EE234E
:100BF00061F0EEEBF1E0E491E093EC00EFEBF1E07B
:100C0000E491E093ED0020EC31E082E08093E90094
:100C1000C9010196F90144914093EB00442361F02E
:100C2000FC0184918093EC00C90103962E5F3F4F35
:100C3000F90124912093ED0023E02093E9009C0129
:100C40002F5F3F4FFC0144914093EB00442361F040
:100C5000F90124912093EC009C012D5F3F4F0296F7
:100C6000FC0184918093ED0084E08093E900A90168
:100C70004F5F5F4FF90184918093EB00882351F01F
:100C8000FA0144914093EC002E5F3F4FF90124910B
:100C90002093ED008EE18093EA001092EA005BCE93
:100CA000E6EDF0E0659174912617370751F4E8ED11
:100CB000F0E0659174914617570719F426ED30E07E
:100CC000C5CEEDEDF0E0659174912617370751F42C
:100CD000EFEDF0E0659174914617570719F42DED8B
:100CE00030E0B4CEE4EEF0E065917491261737075A
:100CF00009F02ECEE6EEF0E025913491421753072D
:100D000009F026CE24EE30E0A1CE309300011092FF
:100D1000BC018EEF8093E8001ECE41E066E485E0E2
:100D200057D140E066E486E053D140E066E487E0D6
:100D3000D8D140E062E481E04BD181E0089508958C
:100D400059D28823E9F371DA9CDA8823E9F3F7DFD3
:100D500059D280917F028823D9F388E198E00FB6B9
:100D6000F894A895809360000FBE90936000FFCF29
:100D70004F925F926F927F928F929F92AF92BF92AB
:100D8000CF92DF92EF92FF920F931F93CF93DF9357
:100D900005E812E0C0E08090AA019090AD01A0901B
:100DA000B001B090B301C090A401D090A701E09031
:100DB0009E01F0909B01D091A1014090A201509022
:100DC0009C0160909F017090A80131C0911005C0F6
:100DD0008091AE018C1709F487C0A11005C08091E5
:100DE000B1018C1709F48CC0B11005C08091B40119
:100DF0008C1709F460C0C11005C08091A5018C1743
:100E000009F465C0D11003C07C1609F485C0E11057
:100E100003C06C1609F48DC0F11002C05C16F1F02D
:100E2000D11102C04C1639F1CF5FC23899F1F801E7
:100E300081918F018823C1F38110C8CF8091AB01CC
:100E40008C13C4CF83E09CDBFFEF2AE683E0F150F4
:100E500020408040E1F700C00000B8CF60EE8BE199
:100E60003CDC2FEF8AE693E0215080409040E1F790
:100E700000C00000D5CF60EE89E12FDCEFEFFAE68D
:100E800023E0E150F0402040E1F700C00000CF5FD8
:100E9000C23869F6DF91CF911F910F91FF90EF90CB
:100EA000DF90CF90BF90AF909F908F907F906F908A
:100EB0005F904F90089582E063DBEFEFFAE623E066
:100EC000E150F0402040E1F700C0000094CF60EE18
:100ED0008DE103DC8FEF9AE6E3E081509040E04043
:100EE000E1F700C000008ECF84E04ADB9FEFEAE626
:100EF000F3E09150E040F040E1F700C000006DCF1A
:100F000080E03EDB2FEF8AE693E021508040904066
:100F1000E1F700C0000068CF60EE8CE1DEDBFFEFA0
:100F20002AE683E0F15020408040E1F700C0000055
:100F30006ECF60EE86E0D1DB9FEFEAE6F3E0915002
:100F4000E040F040E1F700C0000066CF11DF81E033
:100F500008956434E9F070F0653421F16634B1F538
:100F60009FB121E030E001C0220F8A95EAF7892F76
:100F700082230895623401F1633441F596B121E092
:100F800030E001C0220F8A95EAF7892F8223089565
:100F900099B121E030E001C0220F8A95EAF7892F4C
:100FA000822308959CB121E030E001C0220F8A9590
:100FB000EAF7892F8223089593B121E030E001C040
:100FC000220F8A95EAF7892F8223089580E00895F9
:100FD000643409F44EC0C0F0653409F45CC0663472
:100FE00009F07EC021E030E0B90102C0660F771F32
:100FF0008A95E2F7CB01442301F121B3262B21BBD3
:1010000090B3892B80BB0895623409F1633409F0F1
:1010100066C021E030E0B90102C0660F771F8A95F3
:10102000E2F7CB0141110FC038B1262F20952323C1
:1010300028B997B1892B87B9089531B3262F209508
:10104000232321BBDDCF28B1262B28B9F2CF21E005
:1010500030E0B90102C0660F771F8A95E2F7CB0135
:10106000442359F125B1262B25B994B1892B84B994
:10107000089521E030E0B90102C0660F771F8A951C
:10108000E2F7CB014423F9F02BB1262B2BB99AB10F
:10109000892B8AB9089521E030E0B90102C0660FBA
:1010A000771F8A95E2F7CB01442399F02EB1262BC6
:1010B0002EB99DB1892B8DB9089535B1262F209574
:1010C000232325B9D2CF3BB1262F209523232BB93B
:1010D000DECF3EB1262F209523232EB9EACF0895E7
:1010E0000895643409F450C0D0F0653409F460C048
:1010F000663409F07EC021E030E0B90102C0660F1D
:10110000771F8A95E2F7CB01262F2095442301F122
:1011100091B3892B81BB80B3822380BB0895623455
:10112000F9F0633409F064C021E030E0B90102C095
:10113000660F771F8A95E2F7CB01262F2095411184
:101140000BC088B1822388B987B1822387B90895FB
:1011500081B3822381BBDFCF98B1892B88B9F4CFCB
:1011600021E030E0B90102C0660F771F8A95E2F7EF
:10117000CB01262F2095442379F195B1892B85B990
:1011800084B1822384B9089521E030E0B90102C01E
:10119000660F771F8A95E2F7CB01262F209544230F
:1011A000F9F09BB1892B8BB98AB182238AB9089552
:1011B00021E030E0B90102C0660F771F8A95E2F79F
:1011C000CB01262F2095442379F09EB1892B8EB92F
:1011D0008DB182238DB9089585B1822385B9D0CF91
:1011E0008BB182238BB9E0CF8EB182238EB9F0CF41
:1011F00008950895E1E6F0E080E8808310828DDDB7
:1012000081E008958091810291E089278093810295
:1012100060911501809116019CDE40918102882326
:1012200061F14260409381024170609117018091A9
:101230001801CEDE80918102982F95709430F9F0DC
:10124000953081F1992371F1982F9F739331F1F0CB
:10125000943170F4933059F120918402913109F066
:1012600097C08460809381022F5F20938402089549
:10127000982F9D73913309F108954D7FD3CF837FCC
:1012800080938102982F9F73933111F7909184027C
:1012900010928402933809F477C08F7C8C6080931D
:1012A000810208953AE13A95F1F700C0089510924D
:1012B00084028C61809381020895209184022238F7
:1012C00081F290E2899FA00111244074482BE22F03
:1012D000F0E086958170EB57FD4F9081892730E8CB
:1012E000839FC0011124842B8093810281FB3327CB
:1012F00030F990918202930F9093820230832338C9
:1013000061F51092840281FFC8CF87FFB5CF0E949C
:10131000FF008091B802882331F08091800280958F
:1013200081708093800260918402623898F4862FE5
:1013300090E0FC01E75EFE4F40818B579D4F562F9A
:10134000FC01808133D8609184026F5F60938402D6
:10135000623868F3109284020895211182CF30918F
:101360008302931302C0911109C0F0DD0E94440171
:101370009091820280918102209184029093830255
:10138000109282028F736DCF8C62809381020895D8
:101390000895EE0FFF1F0590F491E02D0994F89445
:1013A000FFCF2B0225021F02190213020C020502B5
:0213B000310208
:1013B2007D0100FFFFCD00CE00B700B600B500E210
:1013C20000E900EA00460746040058575554005FFA
:1013D200595C6256635B5E618560005A5D00000085
:1013E200000000000000004544434241403F3E3CB3
:1013F2003B292E302D270023211F3D3A002A002FA2
:1014020026252422201E0000312813121800170856
:101412001435004BE534330C1C151A002B004A52CC
:10142200380F0D0A00070400004C4EE6370E0B0978
:10143200161DE0004D5150003611191BE2E1004922
:101442004FE42C10050600E3460000008000007502
:1014520000006A00005F00005E00005400004900C6
:06146200003D0000330014
:00000001FF
