:1000000062C100007BC1000079C1000077C100001F
:1000100075C1000073C1000071C100006FC1000014
:100020006DC100006BC1000012C600006BC600006D
:1000300065C1000063C1000061C100005FC1000034
:100040005DC100005BC1000059C1000057C1000044
:1000500055C1000053C1000051C100004FC1000054
:100060004DC100004BC1000049C1000047C1000064
:1000700045C1000043C1000041C100003FC1000074
:100080003DC100003BC1000039C1000037C1000084
:1000900035C1000033C1000031C100002FC1000094
:1000A0002DC100002BC1000029C100000000001F6D
:1000B0001A161D2B2900002008071B141E00002102
:1000C00015090600E0000022170A19E104000023C8
:1000D0001C0B05E300000024180D1100E2000025B0
:1000E0000C0E102C00000026120F36E7E600002749
:1000F000133337272800002E2D34384B37000035B6
:100100002F30464E0000005331E4E5440000452AFC
:10011000504F51430052223B3F421E403C4A243A3A
:100120003E211F413D4D254C26232000F0010000BB
:100130001F1A161D2B2900002008071B141E000083
:100140002115090600E0000022170A19E104000049
:10015000231C0B050039000024180D1100E20000DB
:10016000250C0E102C00000026120F3600E60000B1
:1001700027133337622800002E2D34384B630000DC
:10018000352F30464E0000005331E4E54400004571
:100190002A504F514300525D3B3F4259403C4A5F19
:1001A0003A3E5C5A413D4D604C615E5B00F000019F
:1001B0000000AD0212000200002B023B00210000F3
:1001C0003D0209002200007F022E0021010056029C
:1001D0000900220100660219000300002702040141
:1001E00003090413021202030904ED01242403503D
:1001F0000052004F004D004900430052004F0020C4
:10020000004B004500590042004F0041005200449D
:100210000000001203500052004F004D00490043FF
:100220000052004F0000000403090409023B0002D1
:100230000100C0320904000001030101000921117D
:10024000010001222E000705810340000A09040174
:10025000000103000000092111010001221900071B
:1002600005820308000A050C0901A1018503150197
:10027000269C0219012A9C02751095018100C00577
:10028000010906A101050719E029E71500250175F7
:100290000195088102950175088103953E75081541
:1002A0000026FF000507190029658100C012010022
:1002B0000200000040C0167C0400010102000101A0
:1002C000C13601C1060011241FBECFEFDAE0DEBF48
:1002D000CDBF11E0A0E0B1E0E6E9F1E102C0059098
:1002E0000D92AE33B107D9F722E0AEE3B1E001C021
:1002F0001D92A33BB207E1F7A5D243C781CE0F936E
:100300001F93CF93DF93EC018C01005F1F4F688137
:10031000898122D741E06881898120D72296C01740
:10032000D107A9F781E0DF91CF911F910F91089537
:1003300066E484E011D766E485E00ED766E486E0E3
:100340000BD766E487E008D780E291E0D8DF40E091
:1003500064E483E003D740E064E482E0FFD641E058
:1003600062E486E0FBD641E062E482E0F7D641E059
:1003700062E483E0F3D641E062E481E0EFD640E05E
:1003800066E480E0EBD640E066E481E0E7D640E05A
:1003900065E482E0E3D640E064E485E0DFD640E057
:1003A00064E486E0DBD640E063E487E0D7D640E053
:1003B00062E480E0D3D640E062E487E0CFD681E01B
:1003C0000895E1E6F0E080E880831082B1DF81E00B
:1003D000089583E090910301990F90930301909108
:1003E00003019F5F909303018150A1F70895CF927D
:1003F000DF92EF92FF920F931F93CF93DF9300D082
:1004000000D0CDB7DEB783FB992790F9998382FBA3
:10041000992790F99A8381FB992790F99B838170A2
:100420008C83CE0101967C0108E111E06E0195E01C
:10043000C90ED11CF70141917F01F80160818181D2
:100440007ED60E5F1F4FEC14FD04A1F7FAEBFA9570
:10045000F1F700C00F900F900F900F90DF91CF91A8
:100460001F910F91FF90EF90DF90CF900895633030
:1004700029F481E0763039F080E005C06B30E1F797
:1004800081E07530C9F708956C3041F4773021F080
:10049000711104C082E0089581E0089580E008951C
:1004A0006B3029F481E0773009F080E008956A30FC
:1004B000E1F77730D1F782E00895962F94239F3F9C
:1004C00041F0ECEAF0E0E4918E1319C090E080E096
:1004D0001DC04CEA50E0FA019491891771F02DE2A9
:1004E00031E0F9019491891741F0FA0144918417A0
:1004F00021F0F9012491821318C081E00895EDE202
:10050000F1E0E4918E1311C081E890E028E0629F51
:10051000F001112450E04F5F5F4FE40FF51FE80F2B
:10052000F91FE455FF4F8491089580E0089580916C
:10053000DD018F3021F5E091DB01F091DC012081BC
:100540002230E8F490E080E0FC01EE0FFF1FE80F9E
:10055000F91FE154FE4F4081518162814F3021F4F7
:10056000573011F4611107C001968830910561F789
:10057000211106C008958EE091E0222319F008951C
:1005800083E191E09093DC018093DB01F8CFDF926F
:10059000EF92FF920F931F93CF93DF93D0E0C0E0D1
:1005A00091EBE92E92E0F92EDC2EE091DB01F09147
:1005B000DC014FEF6FEF808180DF882389F18E01AE
:1005C000000F111F0C0F1D1F01541E4FF801418118
:1005D0006081E091DB01F091DC0180816EDF482FCA
:1005E0005091DD018091E801882399F0F801828122
:1005F000882379F0E1EFF1E08181581303C0828113
:10060000D816B1F03396EE16FF06B1F76D2D81E0E6
:1006100002C06C2F80E0D2D12196C830D10521F6DE
:10062000DF91CF911F910F91FF90EF90DF90089590
:1006300080814813E7CFF0CF90E080E061E05091F7
:10064000DD01FC01EE0FFF1FE80FF91FE154FE4F23
:10065000728128E0529FD0011124A15CBE4FA80FE7
:10066000B91F7C93252F382F40E0208331834283AC
:10067000DC01A252BE4F5C91511101C06283019610
:1006800088309105E1F6089590E080E0FC0133E0C8
:10069000EE0FFF1F3A95E1F7E15CFE4F10821182E9
:1006A000128213821482158216821782019680317B
:1006B000910561F790E080E0FC01EE0FFF1FE80F6D
:1006C000F91FE154FE4F209100013091010140914A
:1006D000020120833183428301968830910561F7BE
:1006E0002093D7013093D8014093D9010895CF9238
:1006F000DF92EF92FF920F931F93CF93DF93D0E09F
:10070000C0E0FF24F394FE01EE0FFF1FEC0FFD1F6E
:10071000E154FE4FC080D180E280EE2009F484C015
:100720001C2D0D2D80913E011430B9F4073009F0D5
:1007300062C0E091DB01F091DC01908191115BC01E
:100740008F2580933E012FEF84E39CE02150804071
:100750009040E1F700C0000067C0811165C016300D
:1007600009F04BC0073009F048C060E087E2DFD1F4
:100770008FE19EE40197F1F700C0000060E087E29E
:10078000D6D19FEF2AE683E0915020408040E1F7E8
:10079000E1CF811304C08091D801801759F060E047
:1007A00089E3C5D19FEF2EE585E091502040804040
:1007B000E1F7D0CF8E2DB60167DE882349F0813076
:1007C00019F485E022D2DDCF8230D9F686E0FACF67
:1007D0008E2DB60165DE882341F0813011F482E070
:1007E000F1CF823071F683E0EDCF1F30E9F40630AF
:1007F000D9F480E0E7CF811117C08E2DB60137DE26
:100800008823C1F28091D701909100018913C1CF53
:100810002091D801909101012913BBCFC092D7013B
:10082000D092D801E092D9012196C830D10509F0C3
:100830006ACFDF91CF911F910F91FF90EF90DF90E2
:10084000CF900895BEDD8823E9F39DD0B4D08823EE
:10085000E9F3BFDD2FEF84E39CE02150804090401E
:10086000E1F700C0000083E191E09093DC01809308
:10087000DB0111E009DF9091E6018091E701981713
:1008800031F08091E7018093E6011093E9018091B6
:10089000E9018111B8D11092E7011092DD01809138
:1008A000DD0190910301981728F31092E80110924E
:1008B000DA019DDD80E2E82E81E0F82ED0E0C0E094
:1008C000F701608181811CD48093DA018091DA0183
:1008D000DE01A252BE4F882301F11C93219682E0D3
:1008E000E80EF11CC830D10559F78091E70181115C
:1008F00005C08091E80181111093E7019DDE17DEAC
:10090000F6DE80913E018823D1F027D07CD1809102
:10091000DD018F5F8093DD01C2CF1C92E091DD018C
:1009200028E0E29FF0011124E15CFE4FEC0FFD1F77
:1009300090818C919813D2CF1093E801CFCF27DE0E
:100940009AEB9A95F1F700C080E291E0D8DCDFCF16
:100950008091E80080FFFCCF0895E1EFF1E0809105
:10096000060190910701A091080181939193A193B1
:1009700082E0E13BF80799F71092B1021092EF0183
:100980001092EE010895E9DF81E08093D70080EABC
:100990008093D80082E189BD09B400FEFDCF80E9D3
:1009A0008093D8001092E0001092B2028CE0809305
:1009B000E200789408958091B2020895442309F4E6
:1009C0006DC0E0E2E40FE83058F4F0E0ED53F74F8B
:1009D0009091B102D0C38823B9F091609093B10295
:1009E000E1EFF1E030E020E08823D1F19081911136
:1009F0003DC0F901EE0FFF1FE20FF31FEF50FE4F56
:100A000040835183628308959E7FE8CF882311F04D
:100A10009260E4CF9D7FE2CF882311F09460DECF17
:100A20009B7FDCCF882311F09860D8CF977FD6CFFB
:100A3000882311F09061D2CF9F7ED0CF882311F010
:100A40009062CCCF9F7DCACF882311F09064C6CF2F
:100A50009F7BC4CF882311F09068C0CF9F77BECF13
:100A60009181951303C09281961741F02F5F3F4FFC
:100A700033962034310509F0B7CF0895F901EE0F10
:100A8000FF1FE20FF31FEF50FE4F80910601909180
:100A90000701A091080180839183A2830895109299
:100AA000EB019091B2029923F9F09FB79093EB017B
:100AB000F8948093E9009091E4009E5C2091E80016
:100AC00025FD14C02091EB012FBF2091B2022223FB
:100AD00059F02091E400921739F02FB72093EB01E1
:100AE000F8948093E900EACF81E0089580E00895CA
:100AF00081E0D5DF811119C09091B1029093F1008E
:100B00001092F100E1EFF1E090819093F1003396C3
:100B100092E0E13BF907C1F79AE39093E8009091E6
:100B2000EB019FBF1092F001089581E00895CF92EC
:100B3000DF92EF92CF93DF93C090F101D090F2015A
:100B4000E090F301D091B1026093B1028093F10182
:100B50001092F2011092F301CBDFC82F811116C061
:100B60002FEF80E792E0215080409040E1F700C0F5
:100B700000001092F1011092B102BADFC092F101AF
:100B8000D092F201E092F301D093B1028C2FDF9169
:100B9000CF91EF90DF90CF9008951F93CF93DF9385
:100BA000182FD62FC72F82E07ADF811110C0109343
:100BB000F100D093F100C093F1009AE39093E80024
:100BC0009091EB019FBFDF91CF911F91089581E03C
:100BD000FACF6091EE017091EF018091EC0190915C
:100BE000ED016817790769F083E0D7DF81110AC04A
:100BF0002091EE013091EF013093ED012093EC0153
:100C0000089580E0089574DFE4CFCF93E82FF0E0FB
:100C1000EE0FFF1FE05DFE4F808191819093EF0109
:100C20008093EE01D6DFC82F81110EC02FEF80E731
:100C300092E0215080409040E1F700C00000109207
:100C4000EF011092EE01C5DF8C2FCF9108951F9216
:100C50001FB61F9211248F939F93EF93FF93809160
:100C6000E1001092E10083FF0FC01092E90091E0D3
:100C70009093EB001092EC0092E39093ED0098E0DB
:100C80009093F0001092B20282FF34C08091B202C1
:100C9000882381F180910401882361F18091EA0128
:100CA0008F5F8093EA01837029F581E08093E900EA
:100CB0008091E80085FF1EC08091F0018F5F8093D6
:100CC000F00190910401891315C01092F0018091F8
:100CD000B1028093F1001092F100E1EFF1E0808128
:100CE0008093F100339682E0E13BF807C1F78AE395
:100CF0008093E800FF91EF919F918F911F901FBE0D
:100D00001F9018951F920F920FB60F921124EF9219
:100D1000FF920F931F932F933F934F935F936F9384
:100D20007F938F939F93AF93BF93CF93DF93EF9373
:100D3000FF931092E9008091E80083FF70C0D0918A
:100D4000F100C091F1000091F1008091F100182FA5
:100D5000E090F1008091F100F82E2091F1003091A7
:100D6000F10082EF8093E800C63009F064C08EEA9B
:100D700091E0FC01459154910417150709F049C011
:100D8000FC01329645915491E416F50609F041C0F4
:100D9000FC013496459154910696FC0184912F3FB5
:100DA000310519F010F02FEF30E0281708F4822FEA
:100DB0003EEF9091E800292F2570D9F392FD12C0E3
:100DC000982F813408F090E4FA01292F21112DC0C9
:100DD000490F511D282F291B3093E800891323C088
:100DE000803408F5FF91EF91DF91CF91BF91AF91E2
:100DF0009F918F917F916F915F914F913F912F9133
:100E00001F910F91FF90EF900F900FBE0F901F90CA
:100E100018950796F1E08D3E9F0709F0AACF81E271
:100E20008093EB00DFCF822FC4CF64916093F100F9
:100E300021503196CBCFC53041F48EEF8093E8003E
:100E400087DD00680093E300CDCFC93049F5D111AB
:100E50006AC00093B2028EEF8093E80021E08FEB2E
:100E600092E02093E900AC014F5F5F4FFC013491A9
:100E70003093EB00332391F0FA0144914093EC005E
:100E80003196E4910396E093ED002F5F253049F70A
:100E90008EE18093EA001092EA00A4CFCA01F5CF58
:100EA000C83049F4D03809F03EC052DD8091B2021A
:100EB0008093F10012C0C11114C04ADDD23849F448
:100EC000E092E900C091EB00C5FBCC27C0F910927D
:100ED000E900C093F1001092F1008EEF8093E800DA
:100EE00081CF8C2F8D7F8130F1F4D230E1F4012B52
:100EF00009F095CF2E2D2F778FEF820F843008F0D9
:100F00008ECF8EEF8093E8002093E900C33009F480
:100F100086CF89E18093EB0081E090E001C0880FEB
:100F20002A95EAF7B6CFEF2809F079CFD13A11F533
:100F3000C13099F40DDD8091B1028093F1001092DF
:100F4000F100E1EFF1E081EB92E020812093F100EC
:100F500033968E179F07C9F7C0CFC23021F4F8DC53
:100F600080910401A5CFC33009F059CFF1DC809105
:100F700005019ECFD13209F052CFCA3029F4109327
:100F800004011092F001A9CFCB3009F048CF0093B3
:100F90000501A3CF282F4434B9F130F44234A9F02D
:100FA000433419F180E008954534E9F14634D1F72E
:100FB00081E090E001C0880F2A95EAF791B366239B
:100FC00009F440C0892B81BB0BC081E090E001C0D7
:100FD000880F2A95EAF795B1662321F0892B85B908
:100FE00081E0089580958923FACF81E090E001C0E7
:100FF000880F2A95EAF798B1662319F0892B88B9EA
:10100000EFCF80958923FBCF81E090E001C0880F6E
:101010002A95EAF79BB1662319F0892B8BB9E0CFAB
:1010200080958923FBCF81E090E001C0880F2A954D
:10103000EAF79EB1662319F0892B8EB9D1CF80953E
:101040008923FBCF80958923BECF282F4434B9F163
:1010500030F44234A9F0433419F180E00895453466
:10106000E9F14634D1F781E090E001C0880F2A957C
:10107000EAF790B3662309F440C0892B80BB0BC00C
:1010800081E090E001C0880F2A95EAF794B16623C9
:1010900021F0892B84B981E0089580958923FACFC6
:1010A00081E090E001C0880F2A95EAF797B16623A6
:1010B00019F0892B87B9EFCF80958923FBCF81E089
:1010C00090E001C0880F2A95EAF79AB1662319F0DB
:1010D000892B8AB9E0CF80958923FBCF81E090E00E
:1010E00001C0880F2A95EAF79DB1662319F0892B74
:1010F0008DB9D1CF80958923FBCF80958923BECF31
:10110000982F6434C1F030F4623451F0633489F0C4
:1011100080E00895653489F06634D1F78FB101C05D
:1011200083B121E030E001C0220F9A95EAF78223D3
:10113000089586B1F6CF89B1F4CF8CB1F2CFCF93B9
:10114000DF93C82FD62F642F4D2F24DF4D2F61E062
:101150008C2FDF91CF9179CF40E0F1CFCF93DF9308
:10116000C82FD62F642F4D2F15DF4D2F60E08C2F09
:10117000DF91CF916ACFEE0FFF1F0590F491E02D24
:101180000994F894FFCFEB0406050C051205180529
:061190001E0524052A05DE
:10119600FFFF00017D0100FFFF0000FFFF000100CF
:1011A6000F07000000FFFF004604460546064607F7
:1011B60042054204450644074306440444004401EC
:0E11C600CD00B700B600B500E200E900EA0077
:00000001FF
