:10000000E1C00000FBC00000F9C00000F7C0000024
:10001000F5C00000F3C00000F1C00000EFC0000018
:10002000EDC00000EBC000005DC20000B7C20000E0
:10003000E5C00000E3C00000E1C00000DFC0000038
:10004000DDC00000DBC00000D9C00000D7C0000048
:10005000D5C00000D3C00000D1C00000CFC0000058
:10006000CDC00000CBC00000C9C00000C7C0000068
:10007000C5C00000C3C00000C1C00000BFC0000078
:10008000BDC00000BBC00000B9C00000B7C0000088
:10009000B5C00000B3C00000B1C00000AFC0000098
:1000A000ADC00000ABC00000A9C00000000100000E
:1000B000AB01120002000029013B002100003B01BE
:1000C00009002200007D012E0021010054010900D9
:1000D0002201006401190003000025010401030945
:1000E0000411011202030904EB00242403500052FE
:1000F000004F004D004900430052004F0020004BCC
:10010000004500590042004F0041005200440000E9
:10011000001203500052004F004D004900430052AE
:10012000004F0000000403090409023B0002010023
:10013000C03209040000010301010009211101007E
:1001400001222E000705810340000A090401000175
:100150000300000009211101000122190007058296
:100160000308000A050C0901A10185031501269C5D
:100170000219012A9C02751095018100C005010930
:1001800006A101050719E029E7150025017501956C
:10019000088102950175088103953E7508150026B2
:1001A000FF000507190029658100C0120100020047
:1001B000000040C0167C0400010102000101C136AC
:1001C00001C1060011241FBECFEFDAE0DEBFCDBFB4
:1001D00011E0A0E0B1E0E0E9F4E102C005900D9289
:1001E000AC3AB107D9F723E0ACEAB1E001C01D9207
:1001F000A530B207E1F7A9D50C943E0A01CFE3EB95
:10020000F1E08091020190910301A091040181939A
:100210009193A19322E0E337F207C9F7109273029A
:100220001092B1011092B0010895E3EBF1E08091DA
:10023000020190910301A091040181939193A193F4
:1002400022E0E337F207C9F7109273021092B1016E
:100250001092B00181E08093D70080EA8093D800AB
:1002600082E189BD09B400FEFDCF80E98093D8000A
:100270001092E000109274028CE08093E200789477
:1002800008958091740208951092AD0180917402D6
:10029000882329F18FB78093AD01F89481E0809392
:1002A000E9009091E4009E5C8091E80085FD23C008
:1002B00021E00EC08091E400981789F08FB78093F9
:1002C000AD01F8942093E9008091E80085FD13C00A
:1002D0008091AD018FBF809174028111EBCF40916D
:1002E000B0015091B1018091AE019091AF014817DA
:1002F0005907D1F40895809173028093F100109210
:10030000F100E3EBF1E080818093F100339682E02D
:10031000E337F807C1F78AE38093E8008091AD01E5
:100320008FBF1092B201DBCF1092AD0180917402A9
:10033000882301F38FB78093AD01F89482E0809316
:10034000E9009091E4009E5C8091E80085FD18C072
:1003500022E00EC08091E400981761F28FB780937D
:10036000AD01F8942093E9008091E80085FD08C074
:100370008091AD018FBF809174028111EBCF089500
:1003800083E08093F1004093F1005093F1008AE301
:100390008093E8008091AD018FBF8091B001909172
:1003A000B1019093AF018093AE0108954423D1F041
:1003B000E0E2E40FE830B8F081116EC0E4EBF1E068
:1003C00080E090E02081251709F478C001963396EB
:1003D00080349105B9F708950196339680349105DC
:1003E00009F05EC00895F0E0E05CF54F9091730273
:1003F0000C94380A882309F44BC0906490937302DC
:100400000895882309F440C0906290937302089580
:100410008823B1F19061909373020895882361F16C
:100420009860909373020895882311F194609093DB
:10043000730208958823C1F0926090937302089527
:10044000882371F09160909373020895882321F0BE
:1004500090689093730208959F7790937302089524
:100460009E7F9093730208959D7F909373020895E9
:100470009B7F909373020895977F909373020895E2
:100480009F7E9093730208959F7D909373020895C9
:100490009F7B909373020895E3EBF1E080E090E09E
:1004A0002081211199CFFC01EE0FFF1FE80FF91FEA
:1004B000ED54FE4F408351836283089521812613BA
:1004C00085CFFC01EE0FFF1FE80FF91FED54FE4F23
:1004D0008091020190910301A09104018083918396
:1004E000A28308951F921FB61F9211248F939F938A
:1004F000EF93FF938091E1001092E10083FF0FC022
:100500001092E90091E09093EB001092EC0092E3DE
:100510009093ED0098E09093F0001092740282FFA7
:1005200035C080917402882389F18091000188236D
:1005300069F18091AC018F5F8093AC018370811170
:1005400025C081E08093E9008091E80085FF1EC00E
:100550008091B2018F5F8093B20190910001891365
:1005600015C01092B201809173028093F100109235
:10057000F100E3EBF1E080818093F100339682E0BB
:10058000E337F807C1F78AE38093E800FF91EF9122
:100590009F918F911F901FBE1F9018951F921FB69D
:1005A0001F9211242F933F934F935F936F937F93E9
:1005B0008F939F93AF93EF93FF931092E9008091F5
:1005C000E80083FF22C07091F1009091F10020912A
:1005D000F1008091F100382F4091F1008091F100FD
:1005E000582F8091F100A091F10062EF6093E80034
:1005F0009630E9F0953009F451C1993009F436C0CC
:10060000983009F020C1703829F181E28093EB0025
:10061000FF91EF91AF919F918F917F916F915F913A
:100620004F913F912F911F901FBE1F901895ECEA9C
:10063000F0E0659174916217730709F07EC0EEEAED
:10064000F0E0659174914617570709F076C02CEADF
:1006500030E096C08091E80080FFFCCF809174026A
:100660008093F1008EEF8093E800D2CF7111CDCF4F
:10067000209374028EEF8093E80081E08093E9007C
:10068000EDEBF1E0E491E093EB002EEB31E0EE23B3
:1006900061F0EEEBF1E0E491E093EC00EFEBF1E0E0
:1006A000E491E093ED0020EC31E082E08093E900FA
:1006B000C9010196F90144914093EB00442361F094
:1006C000FC0184918093EC00C90103962E5F3F4F9B
:1006D000F90124912093ED0023E02093E9009C018F
:1006E0002F5F3F4FFC0144914093EB00442361F0A6
:1006F000F90124912093EC009C012D5F3F4F02965D
:10070000FC0184918093ED0084E08093E900F9017D
:1007100084918093EB00882351F03196E491E0932B
:10072000EC002E5F3F4FF90124912093ED008EE104
:100730008093EA001092EA006BCFE3EBF0E0659162
:1007400074916217730751F4E5EBF0E065917491D1
:100750006417750719F423EB30E012C0EAEBF0E000
:10076000659174912617370709F049C0ECEBF0E06A
:10077000659174914617570709F041C02AEB30E0A4
:10078000F9013496659174912A5F3F4FF9012491E4
:100790009A2F8F3F910519F010F08FEF90E0482FBE
:1007A000281708F4422F5EEF8091E800982F95708B
:1007B0009923D1F382FD2CCF942F413408F090E49B
:1007C000442309F494C0FB018FEF890F9B012F5F35
:1007D0003F4F280F311D84918093F1003196E2172D
:1007E000F307C9F7690F711D842F891B5093E80027
:1007F000491303C0403409F00BCF482FD5CFE1ECAB
:10080000F0E0659174912617370751F4E3ECF0E0BE
:10081000659174914617570719F421EC30E0B0CF79
:10082000E8ECF0E0659174912617370709F063C092
:10083000EAECF0E0659174914617570709F05BC048
:1008400028EC30E09DCF91110FC08091E80080FF2F
:10085000FCCF723809F460C09093F1001092F1005F
:100860008EEF8093E800D4CE913019F1933009F0E7
:10087000BFC0723009F4ACC0452B09F0C6CE713A46
:1008800009F0C3CE8091E80080FFFCCF8091010188
:100890008093F1008EEF8093E800BACE8EEF8093C4
:1008A000E8008091E80080FFFCCF20682093E300FF
:1008B000AFCE723009F45CC0452B09F0A6CE713A78
:1008C00009F0A3CE8091E80080FFFCCF80917302F5
:1008D0008093F1001092F100E3EBF1E023E732E0C6
:1008E00080818093F10033962E173F07C9F78EEF72
:1008F0008093E8008DCEEFECF0E0659174912617BF
:100900003707A1F4E1EDF0E06591749146175707C0
:1009100069F42FEC30E034CF4093E9009091EB0084
:1009200095FB992790F91092E90096CFE6EDF0E05B
:10093000659174912617370751F4E8EDF0E0659161
:1009400074914617570719F426ED30E019CFEDEDF5
:10095000F0E0659174912617370739F5EFEDF0E077
:10096000659174914617570701F52DED30E008CFDA
:100970002115310509F049CE4F778FEF840F843070
:1009800008F043CE8EEF8093E8004093E90089E1C0
:100990008093EB0081E090E001C0880F4A95EAF770
:1009A0008093EA001092EA0033CEE4EEF0E0659125
:1009B00074912617370709F028CEE6EEF0E025916E
:1009C00034914217530709F020CE24EE30E0D8CE00
:1009D0002115310509F019CE4F778FEF840F843040
:1009E00008F013CE8EEF8093E8004093E9000DCE1F
:1009F000452B09F00ACE713A99F0713209F005CE13
:100A00009A3041F4309300011092B2018EEF80933E
:100A1000E800FECD9B3009F0F8CD2093010167CFAF
:100A2000923009F0F2CD8091E80080FFFCCF8091F8
:100A300000018093F1008EEF8093E800E9CD82E021
:100A40008093B8001092B90041E064E481E095D150
:100A500041E064E481E000D241E064E480E08DD1D3
:100A600041E064E480E0F8D110927F020895CF93D2
:100A7000C82F9FEF9093050194EA9093BC0090914A
:100A8000BC0097FFFCCF91E0909380022091B900C9
:100A9000922F987F90930501983231F028F490318D
:100AA00019F0287E283031F081E08093800280E0C8
:100AB000CF910895109280029830B1F7809175021D
:100AC0008E7F8093BB0084E88093BC0040E064E4A8
:100AD00081E0F9D29091BC0097FFFCCF81E0809338
:100AE00080022091B900922F987F9093050198324F
:100AF000D9F2D0F69031C1F2287E2830A9F61092B2
:100B00008002983189F6809176028093BB0084E858
:100B10008093BC0040E064E481E0D5D29091BC00B9
:100B200097FFFCCF81E0809380028091B900887F9D
:100B300080930501883209F0B7CF10928002C1116D
:100B40004DC084EA8093BC008091BC0087FFFCCF3D
:100B500081E0809380028091B900887F80930501B5
:100B6000883209F4A1CF08F09FCF803109F09CCFE3
:100B7000109280028091750281608093BB0084E8AE
:100B80008093BC0040E064E481E09DD28091BC0091
:100B900087FFFCCF81E0809380028091B900982F7D
:100BA000987F90930501983209F47ECF08F47CCFAA
:100BB000887E803409F078CF10928002903409F05A
:100BC00073CF84E88093BC008091BC0087FFFCCF8A
:100BD0008091BB0094E99093BC006ACF809177022A
:100BE0008093BB0084E88093BC0040E064E481E033
:100BF0006AD28091BC0087FFFCCF81E080938002A5
:100C00008091B900887F80930501883209F04CCF2C
:100C1000109280028FEFDECFFC019081818121E074
:100C200020937F02909375028093760282818823BD
:100C300039F0838192E090937F02809377028281E2
:100C400016CFFDDE40E066E484E03DD240E066E49D
:100C500085E039D240E066E486E035D240E066E4E3
:100C600087E031D241E062E481E0A4D140E062E477
:100C700080E029D240E062E482E025D240E062E4F4
:100C800083E021D240E062E484E01DD240E062E4EF
:100C900085E019D240E062E486E015D240E062E4EB
:100CA00087E011D240E063E486E00DD240E063E4E7
:100CB00087E009D240E064E480E005D240E064E4EB
:100CC00081E001D240E064E482E0FDD140E064E4F0
:100CD00083E0F9D140E064E484E0F5D140E064E4ED
:100CE00085E0F1D140E064E486E0EDD140E064E4E9
:100CF00087E0E9D140E065E482E0E5D140E065E4E9
:100D000086E0E1D140E066E480E0DDD140E066E4E9
:100D100081E0D9D181E00895CF9391DE1092150141
:100D200082E191E079DF8FE3809311018EE091E021
:100D300073DFCFEFC0930D018AE091E06DDFC093C8
:100D4000090186E091E0CF9167CF46D28823E9F38D
:100D50006CDA97DA8823E9F3DFDF46D280918102EB
:100D60008823D9F388E198E00FB6F894A89580938A
:100D700060000FBE90936000FFCF443491F1A0F06B
:100D80004534F1F1463409F065C021E030E0A901B5
:100D900002C0440F551F8A95E2F7CA0191B366233A
:100DA000C9F0892B81BB14C04234C9F1433409F026
:100DB00051C021E030E0A90102C0440F551F8A95BF
:100DC000E2F7CA0198B1611109C08095892388B9F9
:100DD00081E008958095892381BBFACF892B88B95A
:100DE000F7CF21E030E0A90102C0440F551F8A95DA
:100DF000E2F7CA019BB1662309F1892B8BB9E8CFD1
:100E000021E030E0A90102C0440F551F8A95E2F7A6
:100E1000CA019EB16623D1F0892B8EB9D9CF21E0CA
:100E200030E0A90102C0440F551F8A95E2F7CA01BC
:100E300095B1662339F0892B85B9CACF809589236E
:100E40008BB9C6CF8095892385B9C2CF8095892378
:100E50008EB9BECF80E00895443491F1A0F04534BE
:100E6000F1F1463409F065C021E030E0A90102C08B
:100E7000440F551F8A95E2F7CA0190B36623C9F063
:100E8000892B80BB14C04234C9F1433409F051C0EE
:100E900021E030E0A90102C0440F551F8A95E2F716
:100EA000CA0197B1611109C08095892387B981E092
:100EB00008958095892380BBFACF892B87B9F7CF16
:100EC00021E030E0A90102C0440F551F8A95E2F7E6
:100ED000CA019AB1662309F1892B8AB9E8CF21E0CA
:100EE00030E0A90102C0440F551F8A95E2F7CA01FC
:100EF0009DB16623D1F0892B8DB9D9CF21E030E0A7
:100F0000A90102C0440F551F8A95E2F7CA0194B1A6
:100F1000662339F0892B84B9CACF809589238AB991
:100F2000C6CF8095892384B9C2CF809589238DB996
:100F3000BECF80E008956434E9F070F0653421F1AB
:100F40006634B1F59FB121E030E001C0220F8A95EF
:100F5000EAF7892F82230895623401F1633441F561
:100F600096B121E030E001C0220F8A95EAF7892F7F
:100F70008223089599B121E030E001C0220F8A95C3
:100F8000EAF7892F822308959CB121E030E001C067
:100F9000220F8A95EAF7892F8223089593B121E0E1
:100FA00030E001C0220F8A95EAF7892F8223089545
:100FB00080E00895643409F44EC0C0F0653409F44B
:100FC0005CC0663409F07EC021E030E0B90102C0A7
:100FD000660F771F8A95E2F7CB01442301F121B315
:100FE000262B21BB90B3892B80BB0895623409F175
:100FF000633409F066C021E030E0B90102C0660F39
:10100000771F8A95E2F7CB0141110FC038B1262F27
:101010002095232328B997B1892B87B9089531B337
:10102000262F2095232321BBDDCF28B1262B28B9DD
:10103000F2CF21E030E0B90102C0660F771F8A9538
:10104000E2F7CB01442359F125B1262B25B994B100
:10105000892B84B9089521E030E0B90102C0660F00
:10106000771F8A95E2F7CB014423F9F02BB1262BA9
:101070002BB99AB1892B8AB9089521E030E0B901E2
:1010800002C0660F771F8A95E2F7CB01442399F0DF
:101090002EB1262B2EB99DB1892B8DB9089535B16E
:1010A000262F2095232325B9D2CF3BB1262F20957B
:1010B00023232BB9DECF3EB1262F209523232EB933
:1010C000EACF08950895643409F450C0D0F065342F
:1010D00009F460C0663409F07EC021E030E0B90157
:1010E00002C0660F771F8A95E2F7CB01262F209565
:1010F000442301F191B3892B81BB80B3822380BB50
:1011000008956234F9F0633409F064C021E030E0FE
:10111000B90102C0660F771F8A95E2F7CB01262F2F
:10112000209541110BC088B1822388B987B18223F1
:1011300087B9089581B3822381BBDFCF98B1892B12
:1011400088B9F4CF21E030E0B90102C0660F771F03
:101150008A95E2F7CB01262F2095442379F195B1AA
:10116000892B85B984B1822384B9089521E030E0C8
:10117000B90102C0660F771F8A95E2F7CB01262FCF
:1011800020954423F9F09BB1892B8BB98AB1822336
:101190008AB9089521E030E0B90102C0660F771FD7
:1011A0008A95E2F7CB01262F2095442379F09EB152
:1011B000892B8EB98DB182238DB9089585B1822393
:1011C00085B9D0CF8BB182238BB9E0CF8EB182238A
:1011D0008EB9F0CF08950895E1E6F0E080E88083CD
:1011E00010822FDD81E008952F923F924F925F92FF
:1011F0006F927F928F929F92AF92BF92CF92DF9227
:10120000EF92FF920F931F93CF93DF933DD81092ED
:10121000820283E8882E82E0982E8401712C662455
:10122000639493E0292E24E0322E38E0432E40E4EC
:10123000542EAA24A394B12C62E0C62ED12C73E0C4
:10124000E72EF12C92C0872D622F06D1911103C099
:10125000405840930403542F5078842F86958695E8
:1012600086958F7090E4499F900111242074822B01
:10127000806180931D01E0E14E9FC00111248074C4
:10128000852B809319014695417062E481E092DEDE
:1012900086E191E0C1DC8AE191E0BEDC80911D0134
:1012A000806280931D018AE191E0B6DC8FB1881FD6
:1012B0008827881F8093030380911D018F7D809371
:1012C0001D018AE191E0A8DC60912A0180912B0147
:1012D00032DEC82F60912801809129012CDE950112
:1012E00002C0220F331FCA95E2F7E901F60102C0DE
:1012F000EE0FFF1F8A95E2F7CE2BDF2B60912601C0
:101300008091270118DE970102C0220F331F8A95B2
:10131000E2F72C2B3D2B80910303822B8093030358
:10132000809590911D0180FB94F990931D018AE1B5
:1013300091E072DCF80121918F01809103038170AB
:10134000282790918202922B90938202319780837A
:1013500080911D018F7D80931D018AE191E05CDC0D
:101360007394F0E87F1609F44DC020910403422FD6
:1013700046254093040360911F01872D6DD0911184
:1013800004C0422F42254093040360912001872D21
:1013900063D0911103C04325409304036091210160
:1013A000872D5AD0911103C04425409304036091C6
:1013B0002201872D51D0911104C020E14227409392
:1013C000040360912301872D47D0911104C030E2BE
:1013D0004327409304032091250160912401872D28
:1013E0003BD0911130CF452540930403872D622FC8
:1013F00033D0911130CF71102BCF4F77409304032E
:1014000050E02BCF80918202811113C0DF91CF91E8
:101410001F910F91FF90EF90DF90CF90BF90AF9012
:101420009F908F907F906F905F904F903F902F9004
:1014300008950E94FF000CE211E0C0E0F801419124
:101440008F015C2F6C2FF40181914F010E94D60116
:10145000CF5FC03899F7DACF991B79E004C0991FA4
:10146000961708F0961B881F7A95C9F780950895FE
:10147000EE0FFF1F0590F491E02D0994F894FFCF33
:1014800020021A0214020E0208020102FA012602C8
:101490007D0100FFFFFF400D0100400C01004001F5
:1014A0000100400001004013010040120100010250
:1014B0000408102040404604460546061E5857556D
:1014C000541E5F595C6256635B5E6185601E5A5DA7
:1014D0001E1E1E1E1E1E1E1E1E1E45444342414051
:1014E0003F3E3C3B292E302D271E23211F3D3A1E17
:1014F0002A1E2F26252422201E1E1E3128131218D4
:101500001E170814351E4BE534330C1C151A1E2B00
:101510001E4A52380F0D0A1E07041E1E4C4EE63797
:101520000E0B09161DE01E4D51501E3611191BE2FF
:0C153000E11E494FE42C1005061E0000CF
:00000001FF
