:100000006AC1000083C1000081C100007FC10000FF
:100010007DC100007BC1000079C1000077C10000F4
:1000200075C1000073C10000D5C5000030C60000D6
:100030006DC100006BC1000069C1000067C1000014
:1000400065C1000063C1000061C100005FC1000024
:100050005DC100005BC1000059C1000057C1000034
:1000600055C1000053C1000051C100004FC1000044
:100070004DC100004BC1000049C1000047C1000054
:1000800045C1000043C1000041C100003FC1000064
:100090003DC100003BC1000039C1000037C1000074
:1000A00035C1000033C1000031C10000A504AB041C
:1000B000B104B704BD04C304C904CF040000001F89
:1000C0001A161D2B2900002008071B141E000021F2
:1000D00015090600E0000022170A19E104000023B8
:1000E0001C0B05E300000024180D1100E2000025A0
:1000F0000C0E102C00000026120F36E7E600002739
:10010000133337272800002E2D34384B37000035A5
:100110002F30464E0000005331E4E5440000452AEC
:10012000504F51430052223B3F421E403C4A243A2A
:100130003E211F413D4D254C26232000F0010000AB
:100140001F1A161D2B2900002008071B141E000073
:100150002115090600E0000022170A19E104000039
:10016000231C0B050039000024180D1100E20000CB
:10017000250C0E102C00000026120F3600E60000A1
:1001800027133337622800002E2D34384B630000CC
:10019000352F30464E0000005331E4E54400004561
:1001A0002A504F514300525D3B3F4259403C4A5F09
:1001B0003A3E5C5A413D4D604C615E5B00F000018F
:1001C0000000BD0212000200003B023B00210000C3
:1001D0004D0209002200008F022E0021010066025C
:1001E0000900220100760219000300003702040111
:1001F00003090423021202030904FD01242403500D
:100200000052004F004D004900430052004F0020B3
:10021000004B004500590042004F0041005200448D
:100220000000001203500052004F004D00490043EF
:100230000052004F0000000403090409023B0002C1
:100240000100C0320904000001030101000921116D
:10025000010001222E000705810340000A09040164
:10026000000103000000092111010001221900070B
:1002700005820308000A050C0901A1018503150187
:10028000269C0219012A9C02751095018100C00567
:10029000010906A101050719E029E71500250175E7
:1002A0000195088102950175088103953E75081531
:1002B0000026FF000507190029658100C012010012
:1002C0000200000040C0167C040001010200010190
:1002D000C13601C1060011241FBECFEFDAE0DEBF38
:1002E000CDBF11E0A0E0B1E0EEEBF2E102C005907D
:1002F0000D92A834B107D9F722E0A8E4B1E001C01B
:100300001D92AF3BB207E1F71CD2D7C779CE63305D
:1003100021F481E0763031F406C06B3019F481E0CD
:10032000753009F080E008956C3041F4773021F0A9
:10033000711104C082E0089581E0089580E008957D
:100340006B3021F481E0773039F407C06A3021F452
:10035000773011F482E0089580E008950F931F93A1
:10036000CF93DF93ACEBB0E020E030E0ED010DE3A4
:1003700011E06F3F59F44F3F49F4FE019491891702
:1003800029F1F8019491891318C020C0FD019491BE
:10039000981313C0E42FF0E088E0689FE00DF11D92
:1003A000112441E8429FC001439F900D1124E80FA2
:1003B000F91FE354FF4F84910AC02F5F3F4FAF579F
:1003C000BF4F22303105A9F680E001C081E0DF9106
:1003D000CF911F910F91089580910301882331F0EF
:1003E00080E091E09093F5018093F40180E090E04B
:1003F000FC01EE0FFF1FE80FF91FE453FE4F2081B1
:10040000318142814423C9F150910101521335C019
:1004100050910201531331C020910501422F50E049
:100420008091040190E00197481759071CF0109241
:10043000050103C02F5F20930501E0910501F0E065
:10044000E050FF4F868180930001E091F401F0912C
:10045000F501138281E08093030180E091E09093A5
:10046000F7018093F6012FEF83EC99E02150804053
:100470009040E1F700C00000089501968830910592
:1004800009F0B6CF0895DF92EF92FF920F931F937A
:10049000CF93DF93C0E0D0E09CEBE92E92E0F92E01
:1004A000DC2EE091F601F091F7014FEF6FEF8081C4
:1004B00055DF8823D9F18E01000F111F0C0F1D1F6E
:1004C00004531E4FF80141816081E091F601F091E3
:1004D000F701808143DF482F5091F8018091EF01AF
:1004E0008823E1F0F80182818823C1F0ECEFF1E08C
:1004F0002281818158130BC081E090E02D1511F00D
:1005000080E090E0892B19F08081481751F03396F4
:10051000EE16FF0669F76D2D81E002C06C2F80E0BA
:1005200002D22196C830D10509F0BACFDF91CF9120
:100530001F910F91FF90EF90DF90089580E090E081
:1005400061E05091F801FC01EE0FFF1FE80FF91F69
:10055000E453FE4F7281DC0128E0529FA00DB11DD3
:100560001124A45BBE4F7C93252F382F40E02083BD
:1005700031834283DC01AB51BE4F5C91511101C00C
:100580006283019688309105E1F6089580E090E05D
:1005900020E030E0AC0163E0440F551F6A95E1F7BD
:1005A000445B5E4FFA01E20FF31F10822F5F3F4F53
:1005B00028303105B9F701968031910549F780E07F
:1005C00090E0FC01EE0FFF1FE80FF91FE453FE4F10
:1005D000209108013091090140910A012083318363
:1005E000428301968830910561F72093480130934A
:1005F000490140934A010895CF92DF92EF92FF9212
:100600000F931F93CF93DF93C0E0D0E0FF24F394C8
:10061000FE01EE0FFF1FEC0FFD1FE453FE4FC080E5
:10062000D180E280EE2009F47EC0860180914B01EA
:100630000430A1F4173091F4E091F601F091F70144
:10064000908191110BC08F2580934B012FEF84E394
:100650009CE0215080409040E1F763C0811163C06D
:10066000063079F4173069F460E087E223D28FE135
:100670009EE40197F1F700C0000060E087E21AD223
:1006800049C08E2DB60143DE882321F180914801B7
:100690009091080189130DC02091490190910901A1
:1006A000291307C0C0924801D0924901E0924A0143
:1006B0003AC0081304C080914901811759F060E0E5
:1006C00089E3F8D19FEF2EE585E0915020408040EE
:1006D000E1F727C08E2DB60127DE882341F0813057
:1006E00011F485E016C08230A9F486E012C08E2D88
:1006F000B60126DE882341F0813011F482E009C082
:10070000823041F483E005C00F3069F4163059F4AB
:1007100080E03ED29FEF2AE683E091502040804067
:10072000E1F700C000002196C830D10509F070CF74
:10073000DF91CF911F910F91FF90EF90DF90CF90BD
:100740000895CF93DF9300D000D0CDB7DEB7A7D503
:100750008823E9F3CDD0E4D08823E9F383E09091B6
:100760000B01990F90930B0190910B019F5F909358
:100770000B018150A1F72FEF84E39CE021508040D2
:100780009040E1F700C0000080E091E09093F70115
:100790008093F60160E083E58DD1DD24D394F6DE0D
:1007A0009091ED018091EE01981731F08091EE016A
:1007B0008093ED01D092F0018091F0018111E6D19A
:1007C0001092EE011092F801CC24C3948091F801AC
:1007D00090910B01981718F31092EF011092E40119
:1007E00083FB992790F9998382FB992790F99A8343
:1007F00081FB992790F99B8381708C83FE01319650
:100800007F0101E111E0F70141917F01F801608171
:100810008181C8D40E5F1F4FF1E009311F0799F79E
:1008200089E1E82E81E0F82E00E010E0F701608118
:10083000818197D48093E4018091E401F801EB5128
:10084000FE4F882311F0D08211C010828091F801F0
:10085000D80128E0829FA00DB11D1124A45BBE4FDA
:100860009C918081981302C0C092EF010F5F1F4FCF
:1008700082E0E80EF11C08301105C1F68091EE010E
:10088000811105C08091EF018111C092EE0156DE09
:10089000A3DDB2DE80914B01882319F013D076D10D
:1008A00006C0F1DD9AEB9A95F1F700C097D48091DC
:1008B000F8018F5F8093F80189CF8091E80080FF75
:1008C000FCCF0895ECEFF1E080910E0190910F01C3
:1008D000A091100181939193A19382E0EC3BF807E2
:1008E00099F71092BC021092FB011092FA01089540
:1008F000E9DF81E08093D70080EA8093D80082E12D
:1009000089BD09B400FEFDCF80E98093D800109224
:10091000E0001092F3018CE08093E2007894089557
:100920008091F30108950F931F93442309F477C036
:10093000042F10E0F801E05EF109E830F105A0F5C0
:10094000EA5AFF4F9091BC02B2C4882311F0916023
:1009500029C09E7F27C0882311F0926023C09D7F0D
:1009600021C0882311F094601DC09B7F1BC0882389
:1009700011F0986017C0977F15C0882311F090611F
:1009800011C09F7E0FC0882311F090620BC09F7D25
:1009900009C0882311F0906405C09F7B03C08823A1
:1009A00041F090689093BC02ECEFF1E020E030E081
:1009B0000CC09F77F7CF928171817517B9F02F5FC7
:1009C0003F4F33962034310551F18823A1F39081B4
:1009D0009111F5CFF901EE0FFF1F2E0F3F1FF90107
:1009E000E450FE4F40835183628319C0A1E0B0E020
:1009F000961711F0A0E0B0E0AB2B09F3F901EE0F70
:100A0000FF1F2E0F3F1FF901E450FE4F80910E0192
:100A100090910F01A091100180839183A2831F9177
:100A20000F9108951092F9019091F3019923F9F033
:100A30009FB79093F901F8948093E9009091E400B6
:100A40009E5C2091E80025FD14C02091F9012FBF84
:100A50002091F301222359F02091E400921739F0FC
:100A60002FB72093F901F8948093E900EACF81E051
:100A7000089580E0089581E0D5DF811119C090913B
:100A8000BC029093F1001092F100ECEFF1E0908144
:100A90009093F100339692E0EC3BF907C1F79AE3AB
:100AA0009093E8009091F9019FBF1092F201089590
:100AB00081E00895CF92DF92EF92CF93DF93C090C1
:100AC000FC01D090FD01E090FE01D091BC0260934A
:100AD000BC028093FC011092FD011092FE01CBDF5D
:100AE000C82F811116C02FEF80E792E0215080407F
:100AF0009040E1F700C000001092FC011092BC028F
:100B0000BADFC092FC01D092FD01E092FE01D093C9
:100B1000BC028C2FDF91CF91EF90DF90CF900895A2
:100B20001F93CF93DF93182FD62FC72F82E07ADF42
:100B300081110DC01093F100D093F100C093F1002A
:100B40009AE39093E8009091F9019FBF01C081E082
:100B5000DF91CF911F9108956091FA017091FB018F
:100B60008091BD029091BE026817790769F083E019
:100B7000D7DF81110AC02091FA013091FB01309337
:100B8000BE022093BD02089580E0089574DFE4CF93
:100B9000CF93E82FF0E0EE0FFF1FE75DFE4F80815F
:100BA00091819093FB018093FA01D6DFC82F8111C8
:100BB0000EC02FEF80E792E0215080409040E1F797
:100BC00000C000001092FB011092FA01C5DF8C2FCB
:100BD000CF9108951F920F920FB60F9211248F9309
:100BE0009F93EF93FF938091E1001092E10083FFC8
:100BF0000FC01092E90091E09093EB001092EC008E
:100C000092E39093ED0098E09093F0001092F3013E
:100C100082FF34C08091F301882381F180910C011F
:100C2000882361F18091F1018F5F8093F1018370DE
:100C300029F581E08093E9008091E80085FF1EC0DE
:100C40008091F2018F5F8093F20190910C018913E2
:100C500015C01092F2018091BC028093F1001092B5
:100C6000F100ECEFF1E080818093F100339682E0B7
:100C7000EC3BF807C1F78AE38093E800FF91EF911E
:100C80009F918F910F900FBE0F901F9018951F92FC
:100C90000F920FB60F921124FF920F931F932F9371
:100CA0003F934F935F936F937F938F939F93AF93F4
:100CB000BF93CF93DF93EF93FF931092E90080915E
:100CC000E80083FF15C1F090F1008091F100C09120
:100CD000F1009091F100D0E0D92B0091F1009091BA
:100CE000F10010E0192B2091F1006091F10092EFDA
:100CF0009093E800863009F049C08EEB91E04DEF0B
:100D000051E0FC01A591B491CA17DB07D9F4FC01AD
:100D10003296A591B4910A171B07A1F4FC013496F1
:100D200045915491FC013696849130E0362B2F3F4B
:100D3000310519F010F02FEF30E0281708F4822F5A
:100D40003EEF0CC0079648175907D9F6D1C0490F96
:100D5000511D891B3093E8008823A9F09091E80089
:100D6000292F2570D9F392FDC6C0982F813408F041
:100D700090E4FA01292F222351F364916093F1004A
:100D800021503196F8CF903449F3B5C0853041F405
:100D90008EEF8093E80091DDC068C093E300ABC0A4
:100DA000893039F5F1106AC0C093F3018EEF80935A
:100DB000E80041E08FEC92E04093E9009C012F5F56
:100DC0003F4FFC0154915093EB00552359F0F9012A
:100DD00024912093EC009C012D5F3F4F3196E491CC
:100DE000E093ED004F5F453011F0C901E5CF8EE192
:100DF00040C0883039F4F0E8FF1240C05EDD8091D9
:100E0000F30161C0811114C058DD82E8F8120AC0F4
:100E10000093E9008091EB0085FB882780F9109210
:100E2000E90001C080E08093F1001092F1005CC005
:100E3000982F9D7F913011F592E0F9121FC0CD2BB4
:100E400009F056C00F779FEF900F943008F050C014
:100E50009EEF9093E8000093E900833009F448C0C6
:100E600089E18093EB0081E090E001C0880F0A9552
:100E7000EAF78093EA001092EA003DC0012BC1F529
:100E8000E1EAFE1223C0813099F417DD8091BC02A3
:100E90008093F1001092F100ECEFF1E08CEB92E026
:100EA00020812093F10033968E179F07C9F71CC04D
:100EB000823021F402DD80910C0105C08330C1F441
:100EC000FCDC80910D018093F1000EC0F1E2FF1275
:100ED0000FC08A3029F4D0930C011092F20104C0A3
:100EE0008B3031F4C0930D018EEF8093E80003C086
:100EF00081E28093EB00FF91EF91DF91CF91BF9161
:100F0000AF919F918F917F916F915F914F913F91A1
:100F10002F911F910F91FF900F900FBE0F901F9078
:100F20001895443409F43FC028F4423451F0433456
:100F300009F185C0453409F44FC0463409F466C050
:100F40007EC045B121E030E0662349F0B90102C01E
:100F5000660F771F8A95E2F7CB01842B09C0B90190
:100F600002C0660F771F8A95E2F7CB018095842334
:100F700085B94AC048B121E030E0662349F0B901A3
:100F800002C0660F771F8A95E2F7CB01842B09C058
:100F9000B90102C0660F771F8A95E2F7CB018095F1
:100FA000842388B931C04BB121E030E0662349F099
:100FB000B90102C0660F771F8A95E2F7CB01842B37
:100FC00009C0B90102C0660F771F8A95E2F7CB010D
:100FD000809584238BB918C04EB121E030E06623A0
:100FE00049F0B90102C0660F771F8A95E2F7CB017D
:100FF000842B09C0B90102C0660F771F8A95E2F7FA
:10100000CB01809584238EB981E0089541B321E01E
:1010100030E0662349F0B90102C0660F771F8A9558
:10102000E2F7CB01842B09C0B90102C0660F771F1C
:101030008A95E2F7CB018095842381BBE5CF80E0E0
:101040000895443409F43FC028F4423451F0433445
:1010500009F185C0453409F44FC0463409F466C02F
:101060007EC044B121E030E0662349F0B90102C0FE
:10107000660F771F8A95E2F7CB01842B09C0B9016F
:1010800002C0660F771F8A95E2F7CB018095842313
:1010900084B94AC047B121E030E0662349F0B90184
:1010A00002C0660F771F8A95E2F7CB01842B09C037
:1010B000B90102C0660F771F8A95E2F7CB018095D0
:1010C000842387B931C04AB121E030E0662349F07A
:1010D000B90102C0660F771F8A95E2F7CB01842B16
:1010E00009C0B90102C0660F771F8A95E2F7CB01EC
:1010F000809584238AB918C04DB121E030E0662381
:1011000049F0B90102C0660F771F8A95E2F7CB015B
:10111000842B09C0B90102C0660F771F8A95E2F7D8
:10112000CB01809584238DB981E0089540B321E0FF
:1011300030E0662349F0B90102C0660F771F8A9537
:10114000E2F7CB01842B09C0B90102C0660F771FFB
:101150008A95E2F7CB018095842380BBE5CF80E0C0
:101160000895643479F030F4623451F06334C1F49A
:1011700046B10BC0653441F0663491F44FB105C0FF
:1011800043B103C049B101C04CB121E030E0B90125
:1011900002C0660F771F8A95E2F7CB01842308957A
:1011A00080E00895CF93DF93C82FD62F642F4D2F63
:1011B000B8DE4D2F61E08C2FDF91CF9142CF40E020
:1011C000F1CFCF93DF93C82FD62F642F4D2FA9DEF9
:1011D0004D2F60E08C2FDF91CF9133CF0F931F9372
:1011E000CF93DF93C7E3D1E008811981602F812F6E
:1011F000E6DF41E0602F812FE4DF229681E0C734F3
:10120000D80791F781E0DF91CF911F910F91089559
:1012100066E484E0D4DF66E485E0D1DF66E486E05E
:10122000CEDF66E487E0CBDFD9DF40E064E483E033
:10123000C8DF40E064E482E0C4DF41E062E486E0CD
:10124000C0DF41E062E482E0BCDF41E062E483E0D1
:10125000B8DF41E062E481E0B4DF40E066E480E0D2
:10126000B0DF40E066E481E0ACDF40E065E482E0CE
:10127000A8DF40E064E485E0A4DF40E064E486E0C9
:10128000A0DF40E063E487E09CDF40E062E480E0D0
:1012900098DF40E062E487E094DF81E00895E1E6D2
:1012A000F0E080E880831082B3DF81E00895EE0FE4
:0E12B000FF1F0590F491E02D0994F894FFCFF4
:1012BE00000F070002000001FFFF00017D0100FF8B
:1012CE00FF460446054606460742054204450644C7
:1012DE00074306440444004401CD00B700B600B5F0
:1012EE0000E200E900EA00420542044506440743D5
:0812FE00064404440044010011
:00000001FF
