:1070000055C000008AC0000088C0000086C0000093
:1070100084C0000082C0000080C000007EC000006C
:107020007CC000007AC00000CDC5000076C0000022
:1070300074C0000072C0000070C000006EC000008C
:107040006CC000006AC0000068C0000066C000009C
:10705000ECC1000062C0000060C000005EC0000023
:107060005CC000005AC0000058C0000056C00000BC
:1070700054C0000052C0000050C000004EC00000CC
:107080004CC000004AC0000048C0000046C00000DC
:1070900044C0000042C0000040C000003EC00000EC
:1070A0003CC000003AC0000038C0000011241FBEE0
:1070B000CFEFDAE0DEBFCDBF04B603FE19C080918A
:1070C00080019091810182349C4D91F484B7877F37
:1070D00084BF88E10FB6F89480936000109260003E
:1070E0000FBE1092810110928001E0E0F0E009955E
:1070F00011E0A0E0B1E0E4EEFEE702C005900D92E1
:10710000A236B107D9F721E0A2E6B1E001C01D9295
:10711000A038B207E1F736D1E3C672CF1BC0409169
:10712000F3009091F200342F20E0A901492B452B68
:1071300071F49091E8009B7F9093E80003C09EB3A8
:10714000992351F09091E80092FFF9CF02C09091FD
:10715000F10081508111E3CF089530916B012091AE
:107160006A01909169018091680190936E0180930A
:107170006F01C901909370018093710108951F936D
:10718000CF93DF9300D000D000D0CDB7DEB7809191
:1071900075018823D9F080916601843049F480918B
:1071A0006701811107C0809168018F3F19F40EC0FB
:1071B000853061F08AE08093010183E0809374015F
:1071C0008091EB0080628093EB00D2C080916601D9
:1071D000843009F44AC030F4813059F0833009F02A
:1071E000C7C01DC0853009F496C0863009F0C0C004
:1071F000B3C010916701123008F0BAC0AEDF1111B0
:107200000CC080916E0190916F0123E0FC012093EE
:107210005700E89507B600FCFDCF85E008C08091D7
:107220006701882311F0823029F497DF89E0809389
:1072300001019EC0813009F09BC0E0E0F0E0849144
:107240008F3F69F010927201F0936F01E0936E012D
:107250008AE08093010185E08093740189C03196B2
:10726000E11520E7F20759F783C080916701833069
:1072700071F581E08093630180916C0190916D01C3
:1072800020916801892B61F0213009F071C0909143
:107290006B0180916A01909364018093650168C0DD
:1072A000211112C082E49CED9093810180938001B2
:1072B0002CE088E190E00FB6F894A89580936000E8
:1072C0000FBE2093600054C01092000151C0811184
:1072D0004FC0809168018F3F09F04AC0E0E0F0E0C4
:1072E00083E095E080935700E89507B600FCFDCF5A
:1072F00090935700E89507B600FCFDCFE058FF4F8C
:10730000E11520E7F20771F781E180935700E895D6
:10731000109275012DC080E28C838CED8D838BEFF4
:107320008E838EE1898385E98A8387E88B838091C8
:10733000680190916701911105C0FE01E80FF11DF0
:10734000848107C09130A1F4FE01BF97E80FF11DC1
:107350008081809373010CC080916701833041F478
:1073600080916801811104C080916901809372014C
:1073700026960FB6F894DEBF0FBECDBFDF91CF913A
:107380001F91089584B7877F84BF88E10FB6F89472
:1073900080936000109260000FBE90E080E80FB60E
:1073A000F89480936100909361000FBEC1E0C5BF67
:1073B00082E085BFEAD3C4B980E285B98AB91BB837
:1073C000C0936F0083E080938100789410926201F3
:1073D00021C068D58091620181111CC0CE01EFE906
:1073E000FFE03197F1F700C0000021968938934102
:1073F00098F078D314B815B81AB81BB810926F006B
:107400001092810081E085BF15BEE0916401F0918A
:1074100065010995C0E0D0E0809100018111D9CFCC
:10742000809163018111D5CFE4CF1F920F920FB6E7
:107430000F9211248F939F9328988FE19EE40197D8
:10744000F1F700C00000289A9F918F910F900FBE16
:107450000F901F901895AF92BF92CF92DF92EF924C
:10746000FF920F931F93CF93DF93809178018F77D3
:10747000813209F018C281E08093620128988FE17F
:107480009EE40197F1F700C00000289A80917E01E8
:1074900090917F0190936D0180936C0180917901AF
:1074A000833009F4C7C130F4813069F0823009F0CB
:1074B000FAC11BC1853009F4DBC108F4D1C18630A3
:1074C00009F0F1C1DDC18091E800877F8093E80079
:1074D00080916301882319F052DE1092630180913C
:1074E0006C0190916D01009791F12091E80022FDCF
:1074F00004C02EB32111F9CFD6C12091F100209301
:107500006601019790936D0180936C01E7E6F1E0CD
:1075100012C08091F100819380916C0190916D0176
:10752000019790936D0180936C0191E0EC36F9071F
:1075300011F425DE0CC09091F3008091F200F92E39
:10754000E12C9701282BC901892B19F7F2CF8091E3
:107550000101853009F0C5C080916C0190916D01E9
:10756000892B21F482E080930101BBC08AE1D6DD42
:10757000E0906E01F0906F018E2D8F71CFDD009144
:107580007001109171010F5F1F4F0E191F0980913B
:1075900067018111A1C09801369527951E2D0F2DE9
:1075A00040917201D42EC12CC701F12CEE24E3943A
:1075B00045E0B42E53E0A52E51C05091F300409108
:1075C000F200D52F50E0C52FBE01642BAB01452B37
:1075D000F9F021503109412F502F6D2D7C2DF09164
:1075E000F100E091F1000F2F1E2FFA010801E09247
:1075F0005700E8951124F3944E5F5F4F6F4F7F4F14
:10760000142F052FD62EC72EF0E4FF1210C012C083
:107610004091E8004B7F4093E80004C04EB3442300
:1076200009F441C14091E80042FFF8CFD2CF2115C3
:107630003105A1F4FC01B0925700E89507B600FCB3
:10764000FDCF2115310551F0FA01A0925700E895C0
:1076500007B600FCFDCFDB01CA01F12C2115310575
:1076600009F0ABCF809170019091710190936F01FF
:1076700080936E0181E180935700E89530C090912E
:10768000F3008091F200D92EC12C9601282BC9015C
:10769000892B99F0015011096091F10080916E01E0
:1076A00090916F010FD480916E0190916F010196BE
:1076B00090936F0180936E010FC08091E8008B7FE3
:1076C0008093E80004C08EB3882309F4ECC0809155
:1076D000E80082FFF8CFDECF0115110581F680E1C9
:1076E0001DDD8091E8008B7FA2C08091E800877F3C
:1076F0008093E80004C08EB3882309F4D4C080913D
:10770000E80080FFF8CF80910101893091F08A3044
:1077100059F480916701813039F490916E01809124
:107720006F019093F10002C0809173018093F1008A
:107730007BC040916E0150916F01C0917001D0915A
:1077400071012196C41BD50B80916701811139C04D
:10775000D695C795CA01A0917201B0E027C050919B
:10776000F3004091F200352F20E0B901642BAB010A
:107770004032510561F0FC01459154914093F10074
:107780005093F1000296A11DB11D21970FC04091A9
:10779000E8004E7F4093E80004C04EB3442309F450
:1077A00082C04091E80040FFF8CFE5CF2097B9F6BE
:1077B000809170019091710190936F0180936E019F
:1077C00030C0823071F52BC09091F3008091F200AF
:1077D000192F00E0F801E82BCF01809789F0E090A5
:1077E0006E01F0906F01C70165D38093F100FFEF48
:1077F000EF1AFF0AF0926F01E0926E0121970FC01D
:107800008091E8008E7F8093E80004C08EB38823C7
:1078100009F449C08091E80080FFF8CFE0CF2097BD
:1078200099F682E0809301018091E8008E7F809339
:10783000E8002EC08091E800877F8093E800809167
:1078400074018093F1001092F1001092F1001092F7
:10785000F100809101018093F1001092F100E4CFDA
:107860008091E800877F8093E8001092740110C037
:107870008091E800877F8093E8008091010156CFD6
:107880008091E800877F8093E80082E08093010187
:10789000DF91CF911F910F91FF90EF90DF90CF90EC
:1078A000BF90AF9000C1DF91CF911F910F91FF90DA
:1078B000EF90DF90CF90BF90AF900895292F30E0E8
:1078C00033272230310539F02330310549F021309A
:1078D000310589F00BC02BE130E084E391E01EC05C
:1078E000882371F0813089F08230A1F020E030E00F
:1078F00080E090E013C022E130E08FE491E00EC020
:1079000024E030E080E391E009C028E130E086E146
:1079100091E004C022E130E082E091E0FA0191833D
:107920008083C901089507B600FCFDCFF999FECF09
:1079300023E0FB0120935700E89507B600FCFDCF3C
:1079400081E180935700E895089507B600FCFDCFCC
:10795000F999FECF25E0FB0120935700E89507B683
:1079600000FCFDCF81E180935700E895089507B6AC
:1079700000FCFDCFF999FECF21E0FB010A01209325
:107980005700E8951124089521E2FC012093570047
:107990008491089529E0FC01209357008491089573
:1079A000E1E0F0E089E0809357008491089507B604
:1079B00000FCFDCFF999FECF809599E0E1E0F0E081
:1079C000082E90935700E895089540917E015091BC
:1079D0007F014617570748F06115710539F440914A
:1079E000E8004E7F4093E80001C0BA01FC0140E08E
:1079F00032C08EB3882309F441C0853009F440C0F9
:107A00008091E80083FD38C08091E80082FD2EC09F
:107A10008091E80080FF1FC09091F3008091F200F8
:107A2000392F20E0A901482BCA0106C0419140939B
:107A3000F1006150710901966115710519F08032EC
:107A40009105A0F341E0809709F040E08091E800C3
:107A50008E7F8093E8006115710559F64111C9CFF9
:107A600005C08EB3882351F0853051F08091E80035
:107A700082FFF7CF80E0089581E0089582E00895C5
:107A800083E00895EBEEF0E0808181608083EDEE8D
:107A9000F0E010826093EC0040838091EE00881F3C
:107AA0008827881F08958091780187FD05C08091FF
:107AB000E80080FF0DC010C08091E80082FD04C086
:107AC0008EB38111F9CF08958091E8008B7F07C0B4
:107AD0008EB38111ECCF08958091E8008E7F809362
:107AE000E800089562D069D0E0EEF0E08081816026
:107AF0008083E8EDF0E080818F77808319BCA7ED6B
:107B0000B0E08C918E7F8C9380818F7E80831092E9
:107B1000770108950F931F93CF93DF9346D04DD0F5
:107B2000C8EDD0E088818F778883888180688883DA
:107B300088818F7D888319BC1EBA1092760100EE71
:107B400010E0F80180818B7F808388818160888349
:107B500042E260E080E096DFE1EEF0E080818E7F3F
:107B60008083E2EEF0E080818160808380818860A4
:107B70008083F80180818E7F808388818061888303
:107B8000DF91CF911F910F910895E8EDF0E0808192
:107B90008F7E8083E7EDF0E080818160808384E0E8
:107BA00082BF81E080937701B5CFE8EDF0E080817E
:107BB0008E7F80831092E20008951092DA00109276
:107BC000E10008951F920F920FB60F9211242F9388
:107BD0003F934F935F936F937F938F939F93AF9355
:107BE000BF93EF93FF938091DA0080FF1BC08091D9
:107BF000D80080FF17C08091DA008E7F8093DA0072
:107C00008091D90080FF0BC080E189BD82E189BDF0
:107C100009B400FEFDCF81E08EBB43D103C019BC87
:107C20001EBA3FD18091E10080FF17C08091E20031
:107C300080FF13C08091E2008E7F8093E2008091EC
:107C4000E20080618093E2008091D800806280939E
:107C5000D80019BC85E08EBB24D18091E10084FF5F
:107C60002CC08091E20084FF28C080E189BD82E1C0
:107C700089BD09B400FEFDCF8091D8008F7D80932F
:107C8000D8008091E1008F7E8093E1008091E20036
:107C90008F7E8093E2008091E20081608093E20019
:107CA00080917601811104C08091E30087FF02C0BA
:107CB00084E001C081E08EBBF4D08091E10083FFBD
:107CC00021C08091E20083FF1DC08091E100877F89
:107CD0008093E10082E08EBB109276018091E100FA
:107CE0008E7F8093E1008091E2008E7F8093E2009E
:107CF0008091E20080618093E20042E260E080E0F7
:107D0000C1DECFD0FF91EF91BF91AF919F918F9145
:107D10007F916F915F914F913F912F910F900FBE87
:107D20000F901F9018951F93CF93DF9300D0CDB77E
:107D3000DEB7E8E7F1E08091F100819381E0E0387F
:107D4000F807C9F788DB8091E80083FF96C080912F
:107D5000780190917901963009F442C030F499236A
:107D600059F0953009F089C016C0983009F458C010
:107D7000993009F082C066C0803819F0823809F065
:107D80007CC08091E800877F8093E8001092F1002A
:107D90001092F10050C0811170C080917A019091D1
:107DA0007B018F779927182F9091E3009078982B7B
:107DB0009093E3008091E800877F8093E80073DE72
:107DC0008091E80080FFFCCF8091E3008068809381
:107DD000E300112311F083E001C082E08EBB4DC0AF
:107DE0008058823008F049C0AE014F5F5F4F60910C
:107DF0007C0180917A0190917B0160DD009709F40C
:107E00003CC02091E800277F2093E800BC018981D5
:107E10009A81DBDD8091E8008B7F8093E8002DC0A4
:107E2000803859F58091E800877F8093E800809141
:107E300076018093F1008091E8008E7F8093E800C6
:107E400032DE1BC0811119C090917A019230A8F4E2
:107E50008091E800877F8093E8009093760123DE8D
:107E600080917601811104C08091E30087FF02C0F8
:107E700084E001C081E08EBB14D08091E80083FFD4
:107E80000AC08091E800877F8093E8008091EB0032
:107E900080628093EB000F900F90DF91CF911F9144
:107EA000089508958EB3882321F08091E80083FD22
:107EB0003ACF0895F999FECF92BD81BDF89A9927DE
:107EC00080B50895262FF999FECF1FBA92BD81BDC6
:107ED00020BD0FB6F894FA9AF99A0FBE019608954C
:047EE000F894FFCF44
:107EE400010212034C0055004600410020004400EA
:107EF40046005500000018034400650061006E0050
:107F04002000430061006D00650072006100000004
:107F14000403090409021B00010100803209040062
:107F24000000FE0102000921030000000C100112F0
:107F340001100100000020EB03F42F0000010200F7
:027F440001003A
:107FA000C2CCD3CCE4CCF0CCF5CCFACC00CD089547
:087FB000089508950895089555
:107FE000DFCFDFCFDFCFDFCFDFCFDFCFDFCFDFCF21
:087FF000DFCFDFCFDFCFDFCFD1
:087FF8000070000010DFFBDC4B
:040000030000700089
:00000001FF
